{"abi":[{"type":"constructor","inputs":[],"stateMutability":"nonpayable"},{"type":"function","name":"AXIOM_ROLE","inputs":[],"outputs":[{"name":"","type":"bytes32","internalType":"bytes32"}],"stateMutability":"view"},{"type":"function","name":"DEFAULT_ADMIN_ROLE","inputs":[],"outputs":[{"name":"","type":"bytes32","internalType":"bytes32"}],"stateMutability":"view"},{"type":"function","name":"GUARDIAN_ROLE","inputs":[],"outputs":[{"name":"","type":"bytes32","internalType":"bytes32"}],"stateMutability":"view"},{"type":"function","name":"PROVER_ROLE","inputs":[],"outputs":[{"name":"","type":"bytes32","internalType":"bytes32"}],"stateMutability":"view"},{"type":"function","name":"TIMELOCK_ROLE","inputs":[],"outputs":[{"name":"","type":"bytes32","internalType":"bytes32"}],"stateMutability":"view"},{"type":"function","name":"UNFREEZE_ROLE","inputs":[],"outputs":[{"name":"","type":"bytes32","internalType":"bytes32"}],"stateMutability":"view"},{"type":"function","name":"addChannel","inputs":[{"name":"channel","type":"tuple","internalType":"struct IAxiomV2Broadcaster.Channel","components":[{"name":"chainId","type":"uint64","internalType":"uint64"},{"name":"bridgeId","type":"uint8","internalType":"uint8"}]},{"name":"broadcastModule","type":"address","internalType":"address"}],"outputs":[],"stateMutability":"nonpayable"},{"type":"function","name":"axiomCoreAddress","inputs":[],"outputs":[{"name":"","type":"address","internalType":"address"}],"stateMutability":"view"},{"type":"function","name":"channelToBroadcastModule","inputs":[{"name":"","type":"uint64","internalType":"uint64"},{"name":"","type":"uint8","internalType":"uint8"}],"outputs":[{"name":"","type":"address","internalType":"address"}],"stateMutability":"view"},{"type":"function","name":"freezeAll","inputs":[],"outputs":[],"stateMutability":"nonpayable"},{"type":"function","name":"frozen","inputs":[],"outputs":[{"name":"","type":"bool","internalType":"bool"}],"stateMutability":"view"},{"type":"function","name":"getRoleAdmin","inputs":[{"name":"role","type":"bytes32","internalType":"bytes32"}],"outputs":[{"name":"","type":"bytes32","internalType":"bytes32"}],"stateMutability":"view"},{"type":"function","name":"grantRole","inputs":[{"name":"role","type":"bytes32","internalType":"bytes32"},{"name":"account","type":"address","internalType":"address"}],"outputs":[],"stateMutability":"nonpayable"},{"type":"function","name":"hasRole","inputs":[{"name":"role","type":"bytes32","internalType":"bytes32"},{"name":"account","type":"address","internalType":"address"}],"outputs":[{"name":"","type":"bool","internalType":"bool"}],"stateMutability":"view"},{"type":"function","name":"initialize","inputs":[{"name":"_axiomCoreAddress","type":"address","internalType":"address"},{"name":"timelock","type":"address","internalType":"address"},{"name":"guardian","type":"address","internalType":"address"},{"name":"unfreeze","type":"address","internalType":"address"}],"outputs":[],"stateMutability":"nonpayable"},{"type":"function","name":"proxiableUUID","inputs":[],"outputs":[{"name":"","type":"bytes32","internalType":"bytes32"}],"stateMutability":"view"},{"type":"function","name":"removeChannel","inputs":[{"name":"channel","type":"tuple","internalType":"struct IAxiomV2Broadcaster.Channel","components":[{"name":"chainId","type":"uint64","internalType":"uint64"},{"name":"bridgeId","type":"uint8","internalType":"uint8"}]}],"outputs":[],"stateMutability":"nonpayable"},{"type":"function","name":"renounceRole","inputs":[{"name":"role","type":"bytes32","internalType":"bytes32"},{"name":"account","type":"address","internalType":"address"}],"outputs":[],"stateMutability":"nonpayable"},{"type":"function","name":"revokeRole","inputs":[{"name":"role","type":"bytes32","internalType":"bytes32"},{"name":"account","type":"address","internalType":"address"}],"outputs":[],"stateMutability":"nonpayable"},{"type":"function","name":"sendBlockhashPmmr","inputs":[{"name":"pmmrSize","type":"uint32","internalType":"uint32"},{"name":"channels","type":"tuple[]","internalType":"struct IAxiomV2Broadcaster.Channel[]","components":[{"name":"chainId","type":"uint64","internalType":"uint64"},{"name":"bridgeId","type":"uint8","internalType":"uint8"}]},{"name":"broadcastParamsList","type":"tuple[]","internalType":"struct IAxiomV2Broadcaster.BroadcastParams[]","components":[{"name":"bridgeMetadata","type":"bytes","internalType":"bytes"},{"name":"bridgePayment","type":"uint256","internalType":"uint256"}]}],"outputs":[],"stateMutability":"payable"},{"type":"function","name":"sendLatestBlockhashPmmr","inputs":[{"name":"pmmrSize","type":"uint32","internalType":"uint32"},{"name":"mmrPeaks","type":"bytes32[]","internalType":"bytes32[]"},{"name":"channels","type":"tuple[]","internalType":"struct IAxiomV2Broadcaster.Channel[]","components":[{"name":"chainId","type":"uint64","internalType":"uint64"},{"name":"bridgeId","type":"uint8","internalType":"uint8"}]},{"name":"broadcastParamsList","type":"tuple[]","internalType":"struct IAxiomV2Broadcaster.BroadcastParams[]","components":[{"name":"bridgeMetadata","type":"bytes","internalType":"bytes"},{"name":"bridgePayment","type":"uint256","internalType":"uint256"}]}],"outputs":[],"stateMutability":"payable"},{"type":"function","name":"supportsInterface","inputs":[{"name":"interfaceId","type":"bytes4","internalType":"bytes4"}],"outputs":[{"name":"","type":"bool","internalType":"bool"}],"stateMutability":"view"},{"type":"function","name":"unfreezeAll","inputs":[],"outputs":[],"stateMutability":"nonpayable"},{"type":"function","name":"upgradeTo","inputs":[{"name":"newImplementation","type":"address","internalType":"address"}],"outputs":[],"stateMutability":"nonpayable"},{"type":"function","name":"upgradeToAndCall","inputs":[{"name":"newImplementation","type":"address","internalType":"address"},{"name":"data","type":"bytes","internalType":"bytes"}],"outputs":[],"stateMutability":"payable"},{"type":"event","name":"AdminChanged","inputs":[{"name":"previousAdmin","type":"address","indexed":false,"internalType":"address"},{"name":"newAdmin","type":"address","indexed":false,"internalType":"address"}],"anonymous":false},{"type":"event","name":"BeaconUpgraded","inputs":[{"name":"beacon","type":"address","indexed":true,"internalType":"address"}],"anonymous":false},{"type":"event","name":"ChannelAdded","inputs":[{"name":"chainId","type":"uint64","indexed":false,"internalType":"uint64"},{"name":"bridgeId","type":"uint8","indexed":false,"internalType":"uint8"},{"name":"broadcastModule","type":"address","indexed":false,"internalType":"address"}],"anonymous":false},{"type":"event","name":"ChannelRemoved","inputs":[{"name":"chainId","type":"uint64","indexed":false,"internalType":"uint64"},{"name":"bridgeId","type":"uint8","indexed":false,"internalType":"uint8"}],"anonymous":false},{"type":"event","name":"FreezeAll","inputs":[],"anonymous":false},{"type":"event","name":"Initialized","inputs":[{"name":"version","type":"uint8","indexed":false,"internalType":"uint8"}],"anonymous":false},{"type":"event","name":"RoleAdminChanged","inputs":[{"name":"role","type":"bytes32","indexed":true,"internalType":"bytes32"},{"name":"previousAdminRole","type":"bytes32","indexed":true,"internalType":"bytes32"},{"name":"newAdminRole","type":"bytes32","indexed":true,"internalType":"bytes32"}],"anonymous":false},{"type":"event","name":"RoleGranted","inputs":[{"name":"role","type":"bytes32","indexed":true,"internalType":"bytes32"},{"name":"account","type":"address","indexed":true,"internalType":"address"},{"name":"sender","type":"address","indexed":true,"internalType":"address"}],"anonymous":false},{"type":"event","name":"RoleRevoked","inputs":[{"name":"role","type":"bytes32","indexed":true,"internalType":"bytes32"},{"name":"account","type":"address","indexed":true,"internalType":"address"},{"name":"sender","type":"address","indexed":true,"internalType":"address"}],"anonymous":false},{"type":"event","name":"UnfreezeAll","inputs":[],"anonymous":false},{"type":"event","name":"Upgraded","inputs":[{"name":"implementation","type":"address","indexed":true,"internalType":"address"}],"anonymous":false},{"type":"error","name":"AxiomCoreAddressIsZero","inputs":[]},{"type":"error","name":"BroadcastFailed","inputs":[]},{"type":"error","name":"ChannelNotFound","inputs":[]},{"type":"error","name":"ChannelsAndBroadcastParamsDifferInLength","inputs":[]},{"type":"error","name":"ContractIsFrozen","inputs":[]},{"type":"error","name":"GuardianAddressIsZero","inputs":[]},{"type":"error","name":"IncorrectMmrPeaks","inputs":[]},{"type":"error","name":"IncorrectMmrPeaksLength","inputs":[]},{"type":"error","name":"InvalidEmptyHashDepth","inputs":[]},{"type":"error","name":"NotAxiomRole","inputs":[]},{"type":"error","name":"NotProverRole","inputs":[]},{"type":"error","name":"PmmrNotRecent","inputs":[]},{"type":"error","name":"PmmrSnapshotDoesNotExist","inputs":[]},{"type":"error","name":"TimelockAddressIsZero","inputs":[]},{"type":"error","name":"UnfreezeAddressIsZero","inputs":[]}],"bytecode":{"object":"0x60a0604052306080523480156200001557600080fd5b506200002062000026565b62000164565b600054610100900460ff161562000074576040517f08c379a00000000000000000000000000000000000000000000000000000000081526004016200006b90620000ec565b60405180910390fd5b60005460ff9081161015620000ea57600080547fffffffffffffffffffffffffffffffffffffffffffffffffffffffffffffff001660ff9081179091556040517f7f26b83ff96e1f2b6a682f133852f6798a09c465da95921460cefb384740249891620000e19162000154565b60405180910390a15b565b602080825281016200014e81602781527f496e697469616c697a61626c653a20636f6e747261637420697320696e69746960208201527f616c697a696e6700000000000000000000000000000000000000000000000000604082015260600190565b92915050565b60ff82168152602081016200014e565b6080516139276200019c6000396000818161067b015281816106d5015281816107d40152818161082e015261091d01526139276000f3fe6080604052600436106101965760003560e01c806378e98859116100e1578063c78aaefa1161008a578063dc9a4ef611610064578063dc9a4ef6146104dd578063eb607c5714610511578063f288a2e214610524578063f8c8765e1461055857600080fd5b8063c78aaefa1461047c578063cddc3b931461048f578063d547741f146104bd57600080fd5b806399464c89116100bb57806399464c891461041e578063a217fddf14610433578063c608b5e81461044857600080fd5b806378e988591461034f57806391d148541461036f578063984507d1146103c257600080fd5b806336568abe1161014357806352d1902d1161011d57806352d1902d1461030557806366c5c4a01461031a57806372bb58ea1461032f57600080fd5b806336568abe146102b25780633659cfe6146102d25780634f1ef286146102f257600080fd5b806324ea54f41161017457806324ea54f4146102285780632b7d2bad1461025c5780632f2ff15d1461029057600080fd5b806301ffc9a71461019b578063054f7d9c146101d1578063248a9ca3146101eb575b600080fd5b3480156101a757600080fd5b506101bb6101b63660046128ea565b610578565b6040516101c8919061291d565b60405180910390f35b3480156101dd57600080fd5b506097546101bb9060ff1681565b3480156101f757600080fd5b5061021b61020636600461293c565b60009081526065602052604090206001015490565b6040516101c89190612963565b34801561023457600080fd5b5061021b7f55435dd261a4b9b3364963f7738a7a662ad9c84396d64be3365284bb7f0a504181565b34801561026857600080fd5b5061021b7f542178611b653a605b79640db9b52a7afa591d6ace75cd36686e0ee264f4f57281565b34801561029c57600080fd5b506102b06102ab3660046129a3565b6105d4565b005b3480156102be57600080fd5b506102b06102cd3660046129a3565b6105fe565b3480156102de57600080fd5b506102b06102ed3660046129e0565b610664565b6102b0610300366004612b49565b6107bd565b34801561031157600080fd5b5061021b610903565b34801561032657600080fd5b506102b0610999565b34801561033b57600080fd5b506102b061034a366004612bb2565b610a17565b34801561035b57600080fd5b506102b061036a366004612be5565b610b46565b34801561037b57600080fd5b506101bb61038a3660046129a3565b600091825260656020908152604080842073ffffffffffffffffffffffffffffffffffffffff93909316845291905290205460ff1690565b3480156103ce57600080fd5b506104116103dd366004612c35565b61012560209081526000928352604080842090915290825290205473ffffffffffffffffffffffffffffffffffffffff1681565b6040516101c89190612c71565b34801561042a57600080fd5b506102b0610c53565b34801561043f57600080fd5b5061021b600081565b34801561045457600080fd5b5061021b7ff4e710c64967f31ba1090db2a7dd9e704155d00947ce853da47446cb68ee65da81565b6102b061048a366004612d33565b610cd4565b34801561049b57600080fd5b50610124546104119073ffffffffffffffffffffffffffffffffffffffff1681565b3480156104c957600080fd5b506102b06104d83660046129a3565b610dc4565b3480156104e957600080fd5b5061021b7f60044782a422109ac08a415e44260ad5d3bad63d96ebe1fac0363399642ee3f281565b6102b061051f366004612dc3565b610de9565b34801561053057600080fd5b5061021b7ff66846415d2bf9eabda9e84793ff9c0ea96d87f50fc41e66aa16469c6a442f0581565b34801561056457600080fd5b506102b0610573366004612e86565b611169565b60007fffffffff0000000000000000000000000000000000000000000000000000000082167f26b8021e0000000000000000000000000000000000000000000000000000000014806105ce57506105ce826114b4565b92915050565b6000828152606560205260409020600101546105ef8161154b565b6105f98383611555565b505050565b73ffffffffffffffffffffffffffffffffffffffff81163314610656576040517f08c379a000000000000000000000000000000000000000000000000000000000815260040161064d90612f47565b60405180910390fd5b6106608282611649565b5050565b73ffffffffffffffffffffffffffffffffffffffff7f00000000000000000000000000000000000000000000000000000000000000001630036106d3576040517f08c379a000000000000000000000000000000000000000000000000000000000815260040161064d90612fb1565b7f000000000000000000000000000000000000000000000000000000000000000073ffffffffffffffffffffffffffffffffffffffff166107487f360894a13ba1a3210667c828492db98dca3e2076cc3735a920a3ca505d382bbc5473ffffffffffffffffffffffffffffffffffffffff1690565b73ffffffffffffffffffffffffffffffffffffffff1614610795576040517f08c379a000000000000000000000000000000000000000000000000000000000815260040161064d9061301b565b61079e81611704565b604080516000808252602082019092526107ba9183919061172e565b50565b73ffffffffffffffffffffffffffffffffffffffff7f000000000000000000000000000000000000000000000000000000000000000016300361082c576040517f08c379a000000000000000000000000000000000000000000000000000000000815260040161064d90612fb1565b7f000000000000000000000000000000000000000000000000000000000000000073ffffffffffffffffffffffffffffffffffffffff166108a17f360894a13ba1a3210667c828492db98dca3e2076cc3735a920a3ca505d382bbc5473ffffffffffffffffffffffffffffffffffffffff1690565b73ffffffffffffffffffffffffffffffffffffffff16146108ee576040517f08c379a000000000000000000000000000000000000000000000000000000000815260040161064d9061301b565b6108f782611704565b6106608282600161172e565b60003073ffffffffffffffffffffffffffffffffffffffff7f00000000000000000000000000000000000000000000000000000000000000001614610974576040517f08c379a000000000000000000000000000000000000000000000000000000000815260040161064d90613085565b507f360894a13ba1a3210667c828492db98dca3e2076cc3735a920a3ca505d382bbc90565b7ff4e710c64967f31ba1090db2a7dd9e704155d00947ce853da47446cb68ee65da6109c38161154b565b609780547fffffffffffffffffffffffffffffffffffffffffffffffffffffffffffffff001690556040517fe6fdbf73945dd61794a752b9181ea29f77170a7b1ffd37e0a7ff9d2c6f7258b990600090a150565b610a1f611881565b7ff66846415d2bf9eabda9e84793ff9c0ea96d87f50fc41e66aa16469c6a442f05610a498161154b565b816101256000610a5c6020870187613095565b67ffffffffffffffff1667ffffffffffffffff1681526020019081526020016000206000856020016020810190610a9391906130b6565b60ff16815260208082019290925260400160002080547fffffffffffffffffffffffff00000000000000000000000000000000000000001673ffffffffffffffffffffffffffffffffffffffff93909316929092179091557f4a5137a40ae4db9d48d04d19ea77f7eab9507f6e3e980bc39ac0551921aa316390610b1990850185613095565b610b2960408601602087016130b6565b84604051610b39939291906130f0565b60405180910390a1505050565b610b4e611881565b7ff66846415d2bf9eabda9e84793ff9c0ea96d87f50fc41e66aa16469c6a442f05610b788161154b565b6101256000610b8a6020850185613095565b67ffffffffffffffff1667ffffffffffffffff1681526020019081526020016000206000836020016020810190610bc191906130b6565b60ff16815260208082019290925260400160002080547fffffffffffffffffffffffff00000000000000000000000000000000000000001690557fa2f772cba1ef50988057ef5d633a8766ba8753e0aaa1e4f5cd7c467ccb7ce63e90610c2990840184613095565b610c3960408501602086016130b6565b604051610c47929190613118565b60405180910390a15050565b7f55435dd261a4b9b3364963f7738a7a662ad9c84396d64be3365284bb7f0a5041610c7d8161154b565b609780547fffffffffffffffffffffffffffffffffffffffffffffffffffffffffffffff001660011790556040517f61340a1b154d5d21d259a74bf95379201799b9d12cc6509bb46cb56dc281df5590600090a150565b610cdc611881565b610124546040517f5ed3661300000000000000000000000000000000000000000000000000000000815260009173ffffffffffffffffffffffffffffffffffffffff1690635ed3661390610d3490899060040161313f565b602060405180830381865afa158015610d51573d6000803e3d6000fd5b505050506040513d601f19601f82011682018060405250810190610d759190613158565b905080610dae576040517f6fe031fb00000000000000000000000000000000000000000000000000000000815260040160405180910390fd5b610dbc8682878787876118c0565b505050505050565b600082815260656020526040902060010154610ddf8161154b565b6105f98383611649565b610df1611881565b610100610e0463ffffffff8916436131a8565b1115610e3c576040517fd22d431d00000000000000000000000000000000000000000000000000000000815260040160405180910390fd5b600a851015610e77576040517f1d6250a900000000000000000000000000000000000000000000000000000000815260040160405180910390fd5b6000610eb5878780806020026020016040519081016040528093929190818152602001838360200280828437600092019190915250611b8e92505050565b905060006040518060600160405280610f0e8a8a80806020026020016040519081016040528093929190818152602001838360200280828437600092019190915250600a9250610f0991508290508d6131a8565b611b9f565b8152602001610f1e84600a611c00565b815263ffffffff8b16602090910152610124546040517f5ed3661300000000000000000000000000000000000000000000000000000000815291925060009173ffffffffffffffffffffffffffffffffffffffff90911690635ed3661390610f8a908d9060040161313f565b602060405180830381865afa158015610fa7573d6000803e3d6000fd5b505050506040513d601f19601f82011682018060405250810190610fcb9190613158565b9050610fd682611cd3565b811461100e576040517f4c58f94f00000000000000000000000000000000000000000000000000000000815260040160405180910390fd5b600061102063ffffffff8c16436131a8565b905060008167ffffffffffffffff81111561103d5761103d612a01565b604051908082528060200260200182016040528015611066578160200160208202803683370190505b50905060005b828110156110a357808d63ffffffff160140828281518110611090576110906131bb565b602090810291909101015260010161106c565b5060006110b08683611da5565b63ffffffff43811660408801529091506110cf908790600a90611c0016565b6020860152600a5b8181101561112757865181602081106110f2576110f26131bb565b6020020151866000015160000151600a63ffffffff1683036020811061111a5761111a6131bb565b60200201526001016110d7565b50602086015161113990600a906131a8565b855160200152604085015161115a9061115187611cd3565b8c8c8c8c6118c0565b50505050505050505050505050565b600054610100900460ff16158080156111895750600054600160ff909116105b806111a35750303b1580156111a3575060005460ff166001145b6111d9576040517f08c379a000000000000000000000000000000000000000000000000000000000815260040161064d90613244565b600080547fffffffffffffffffffffffffffffffffffffffffffffffffffffffffffffff00166001179055801561123757600080547fffffffffffffffffffffffffffffffffffffffffffffffffffffffffffff00ff166101001790555b61123f611f9d565b611247611fde565b73ffffffffffffffffffffffffffffffffffffffff8516611294576040517ff0f7b81f00000000000000000000000000000000000000000000000000000000815260040160405180910390fd5b73ffffffffffffffffffffffffffffffffffffffff84166112e1576040517fd5ae8cf700000000000000000000000000000000000000000000000000000000815260040160405180910390fd5b73ffffffffffffffffffffffffffffffffffffffff831661132e576040517f40c2354200000000000000000000000000000000000000000000000000000000815260040160405180910390fd5b73ffffffffffffffffffffffffffffffffffffffff821661137b576040517f6d92bcf300000000000000000000000000000000000000000000000000000000815260040160405180910390fd5b61012480547fffffffffffffffffffffffff00000000000000000000000000000000000000001673ffffffffffffffffffffffffffffffffffffffff87161790556113c7600085611555565b6113f17ff66846415d2bf9eabda9e84793ff9c0ea96d87f50fc41e66aa16469c6a442f0585611555565b61141b7f55435dd261a4b9b3364963f7738a7a662ad9c84396d64be3365284bb7f0a504184611555565b6114457ff4e710c64967f31ba1090db2a7dd9e704155d00947ce853da47446cb68ee65da83611555565b80156114ad57600080547fffffffffffffffffffffffffffffffffffffffffffffffffffffffffffff00ff1690556040517f7f26b83ff96e1f2b6a682f133852f6798a09c465da95921460cefb3847402498906114a490600190613268565b60405180910390a15b5050505050565b60007fffffffff0000000000000000000000000000000000000000000000000000000082167f7965db0b0000000000000000000000000000000000000000000000000000000014806105ce57507f01ffc9a7000000000000000000000000000000000000000000000000000000007fffffffff000000000000000000000000000000000000000000000000000000008316146105ce565b6107ba8133612049565b600082815260656020908152604080832073ffffffffffffffffffffffffffffffffffffffff8516845290915290205460ff1661066057600082815260656020908152604080832073ffffffffffffffffffffffffffffffffffffffff85168452909152902080547fffffffffffffffffffffffffffffffffffffffffffffffffffffffffffffff001660011790556115eb3390565b73ffffffffffffffffffffffffffffffffffffffff168173ffffffffffffffffffffffffffffffffffffffff16837f2f8788117e7eff1d82e926ec794901d17c78024a50270940304540a733656f0d60405160405180910390a45050565b600082815260656020908152604080832073ffffffffffffffffffffffffffffffffffffffff8516845290915290205460ff161561066057600082815260656020908152604080832073ffffffffffffffffffffffffffffffffffffffff8516808552925280832080547fffffffffffffffffffffffffffffffffffffffffffffffffffffffffffffff0016905551339285917ff6391f5c32d9c69d2a47ea670b442974b53935d1edc7fd64eb21e047a839171b9190a45050565b7ff66846415d2bf9eabda9e84793ff9c0ea96d87f50fc41e66aa16469c6a442f056106608161154b565b7f4910fdfa16fed3260ed0e7147f7cc6da11a60208b5b9406d12a635614ffd91435460ff1615611761576105f983612103565b8273ffffffffffffffffffffffffffffffffffffffff166352d1902d6040518163ffffffff1660e01b8152600401602060405180830381865afa9250505080156117e6575060408051601f3d9081017fffffffffffffffffffffffffffffffffffffffffffffffffffffffffffffffe01682019092526117e391810190613158565b60015b61181c576040517f08c379a000000000000000000000000000000000000000000000000000000000815260040161064d906132d0565b7f360894a13ba1a3210667c828492db98dca3e2076cc3735a920a3ca505d382bbc8114611875576040517f08c379a000000000000000000000000000000000000000000000000000000000815260040161064d9061333a565b506105f98383836121b7565b60975460ff16156118be576040517f379dfc6300000000000000000000000000000000000000000000000000000000815260040160405180910390fd5b565b828181146118fa576040517f35da0f7a00000000000000000000000000000000000000000000000000000000815260040160405180910390fd5b60005b81811015611b745736868683818110611918576119186131bb565b905060400201905036858584818110611933576119336131bb565b9050602002810190611945919061334a565b905060006101258161195a6020860186613095565b67ffffffffffffffff1667ffffffffffffffff168152602001908152602001600020600084602001602081019061199191906130b6565b60ff16815260208101919091526040016000205473ffffffffffffffffffffffffffffffffffffffff169050806119f4576040517f1e07dd9400000000000000000000000000000000000000000000000000000000815260040160405180910390fd5b600073ffffffffffffffffffffffffffffffffffffffff82167f2f5290f500000000000000000000000000000000000000000000000000000000611a3b6020870187613095565b8e8e611a47888061338c565b8960200135604051602401611a6196959493929190613450565b604080517fffffffffffffffffffffffffffffffffffffffffffffffffffffffffffffffe08184030181529181526020820180517bffffffffffffffffffffffffffffffffffffffffffffffffffffffff167fffffffff00000000000000000000000000000000000000000000000000000000909416939093179092529051611aea91906134eb565b600060405180830381855af49150503d8060008114611b25576040519150601f19603f3d011682016040523d82523d6000602084013e611b2a565b606091505b5050905080611b65576040517f04df53dd00000000000000000000000000000000000000000000000000000000815260040160405180910390fd5b846001019450505050506118fd565b504715611b8557611b8533476121e2565b50505050505050565b611b96612871565b6105ce82600084515b611ba7612871565b6020810182905260005b82811015611bf8578481850181518110611bcd57611bcd6131bb565b602002602001015182600001518260208110611beb57611beb6131bb565b6020020152600101611bb1565b509392505050565b6000806000805b84811015611cc95781158015611c36575085516000908260208110611c2e57611c2e6131bb565b602002015114155b15611c4b57611c44816122bf565b9250600191505b8115611cc15785516000908260208110611c6757611c676131bb565b602002015103611c9257611c8d83611c7e836122bf565b60009182526020526040902090565b611cbe565b8551611cbe908260208110611ca957611ca96131bb565b60200201518460009182526020526040902090565b92505b600101611c07565b5090949350505050565b60008082600001516020015167ffffffffffffffff811115611cf757611cf7612a01565b604051908082528060200260200182016040528015611d20578160200160208202803683370190505b50905060005b835160200151811015611d71578351518160208110611d4757611d476131bb565b6020020151828281518110611d5e57611d5e6131bb565b6020908102919091010152600101611d26565b50602080840151604051611d879284910161354d565b60405160208183030381529060405280519060200120915050919050565b80516000908180808080805b8615611f7b5789516000908660208110611dcd57611dcd6131bb565b602002015114611dde576001611de1565b60005b60ff1695505050848401600181901c907ffffffffffffffffffffffffffffffffffffffffffffffffffffffffffffffffe1660005b81811015611f015786600103611e8e5780600003611e4d578a518660208110611e4157611e416131bb565b60200201519450611e6d565b896001820381518110611e6257611e626131bb565b602002602001015194505b898181518110611e7f57611e7f6131bb565b60200260200101519350611eca565b898181518110611ea057611ea06131bb565b60200260200101519450898160010181518110611ebf57611ebf6131bb565b602002602001015193505b60008581526020859052604090208a600183901c81518110611eee57611eee6131bb565b6020908102919091010152600201611e16565b50858760011614611f4957886001880381518110611f2157611f216131bb565b60200260200101518a600001518660208110611f3f57611f3f6131bb565b6020020152611f6d565b85600103611f6d5789516000908660208110611f6757611f676131bb565b60200201525b819650846001019450611db1565b8960200151851115611f8f5760208a018590525b509298975050505050505050565b600054610100900460ff166118be576040517f08c379a000000000000000000000000000000000000000000000000000000000815260040161064d906135c3565b600054610100900460ff1661201f576040517f08c379a000000000000000000000000000000000000000000000000000000000815260040161064d906135c3565b609780547fffffffffffffffffffffffffffffffffffffffffffffffffffffffffffffff00169055565b600082815260656020908152604080832073ffffffffffffffffffffffffffffffffffffffff8516845290915290205460ff1661066057612089816124aa565b6120948360206124c9565b6040516020016120a59291906135d3565b604080517fffffffffffffffffffffffffffffffffffffffffffffffffffffffffffffffe0818403018152908290527f08c379a000000000000000000000000000000000000000000000000000000000825261064d91600401613683565b73ffffffffffffffffffffffffffffffffffffffff81163b612151576040517f08c379a000000000000000000000000000000000000000000000000000000000815260040161064d906136ee565b7f360894a13ba1a3210667c828492db98dca3e2076cc3735a920a3ca505d382bbc80547fffffffffffffffffffffffff00000000000000000000000000000000000000001673ffffffffffffffffffffffffffffffffffffffff92909216919091179055565b6121c0836126e3565b6000825111806121cd5750805b156105f9576121dc8383612730565b50505050565b8047101561221c576040517f08c379a000000000000000000000000000000000000000000000000000000000815260040161064d90613735565b60008273ffffffffffffffffffffffffffffffffffffffff168260405161224290613745565b60006040518083038185875af1925050503d806000811461227f576040519150601f19603f3d011682016040523d82523d6000602084013e612284565b606091505b50509050806105f9576040517f08c379a000000000000000000000000000000000000000000000000000000000815260040161064d906137a7565b6000816000036122d157506000919050565b8160010361230057507fad3228b676f7d3cd4284a5443f17f1962b36e491b30a40b2405849e597ba5fb5919050565b8160020361232f57507fb4c11951957c6f8f642c4af61cd6b24640fec6dc7fc607ee8206a99e92410d30919050565b8160030361235e57507f21ddb9a356815c3fac1026b6dec5df3124afbadb485c9ba5a3e3398a04b7ba85919050565b8160040361238d57507fe58769b32a1beaf1ea27375a44095a0d1fb664ce2dd358e7fcbfb78c26a19344919050565b816005036123bc57507f0eb01ebfc9ed27500cd4dfc979272d1f0913cc9f66540d7e8005811109e1cf2d919050565b816006036123eb57507f887c22bd8750d34016ac3c66b5ff102dacdd73f6b014e710b51e8022af9a1968919050565b8160070361241a57507fffd70157e48063fc33c97a050f7f640233bf646cc98d9524c6b92bcf3ab56f83919050565b8160080361244957507f9867cc5f7f196b93bae1e27e6320742445d290f2263827498b54fec539f756af919050565b8160090361247857507fcefad4e508c098b9a7e1d8feb19955fb02ba9675585078710969d3440f5054e0919050565b6040517f90fa88a700000000000000000000000000000000000000000000000000000000815260040160405180910390fd5b60606105ce73ffffffffffffffffffffffffffffffffffffffff831660145b606060006124d88360026137b7565b6124e39060026137d6565b67ffffffffffffffff8111156124fb576124fb612a01565b6040519080825280601f01601f191660200182016040528015612525576020820181803683370190505b5090507f30000000000000000000000000000000000000000000000000000000000000008160008151811061255c5761255c6131bb565b60200101907effffffffffffffffffffffffffffffffffffffffffffffffffffffffffffff1916908160001a9053507f7800000000000000000000000000000000000000000000000000000000000000816001815181106125bf576125bf6131bb565b60200101907effffffffffffffffffffffffffffffffffffffffffffffffffffffffffffff1916908160001a90535060006125fb8460026137b7565b6126069060016137d6565b90505b60018111156126a3577f303132333435363738396162636465660000000000000000000000000000000085600f1660108110612647576126476131bb565b1a60f81b82828151811061265d5761265d6131bb565b60200101907effffffffffffffffffffffffffffffffffffffffffffffffffffffffffffff1916908160001a90535060049490941c9361269c816137e9565b9050612609565b5083156126dc576040517f08c379a000000000000000000000000000000000000000000000000000000000815260040161064d90613850565b9392505050565b6126ec81612103565b60405173ffffffffffffffffffffffffffffffffffffffff8216907fbc7cd75a20ee27fd9adebab32041f755214dbc6bffa90cc0225b39da2e5c2d3b90600090a250565b606073ffffffffffffffffffffffffffffffffffffffff83163b612780576040517f08c379a000000000000000000000000000000000000000000000000000000000815260040161064d906138ba565b6000808473ffffffffffffffffffffffffffffffffffffffff16846040516127a891906134eb565b600060405180830381855af49150503d80600081146127e3576040519150601f19603f3d011682016040523d82523d6000602084013e6127e8565b606091505b509150915061281082826040518060600160405280602781526020016138cb60279139612819565b95945050505050565b606083156128285750816126dc565b6126dc838381511561283d5781518083602001fd5b806040517f08c379a000000000000000000000000000000000000000000000000000000000815260040161064d9190613683565b6040518060400160405280612884612891565b8152602001600081525090565b6040518061040001604052806020906020820280368337509192915050565b7fffffffff0000000000000000000000000000000000000000000000000000000081165b81146107ba57600080fd5b80356105ce816128b0565b6000602082840312156128ff576128ff600080fd5b600061290b84846128df565b949350505050565b8015155b82525050565b602081016105ce8284612913565b806128d4565b80356105ce8161292b565b60006020828403121561295157612951600080fd5b600061290b8484612931565b80612917565b602081016105ce828461295d565b600073ffffffffffffffffffffffffffffffffffffffff82166105ce565b6128d481612971565b80356105ce8161298f565b600080604083850312156129b9576129b9600080fd5b60006129c58585612931565b92505060206129d685828601612998565b9150509250929050565b6000602082840312156129f5576129f5600080fd5b600061290b8484612998565b7f4e487b7100000000000000000000000000000000000000000000000000000000600052604160045260246000fd5b7fffffffffffffffffffffffffffffffffffffffffffffffffffffffffffffffe0601f830116810181811067ffffffffffffffff82111715612a7457612a74612a01565b6040525050565b6000612a8660405190565b9050612a928282612a30565b919050565b600067ffffffffffffffff821115612ab157612ab1612a01565b7fffffffffffffffffffffffffffffffffffffffffffffffffffffffffffffffe0601f83011660200192915050565b82818337506000910152565b6000612aff612afa84612a97565b612a7b565b905082815260208101848484011115612b1a57612b1a600080fd5b611bf8848285612ae0565b600082601f830112612b3957612b39600080fd5b813561290b848260208601612aec565b60008060408385031215612b5f57612b5f600080fd5b6000612b6b8585612998565b925050602083013567ffffffffffffffff811115612b8b57612b8b600080fd5b6129d685828601612b25565b600060408284031215612bac57612bac600080fd5b50919050565b60008060608385031215612bc857612bc8600080fd5b6000612bd48585612b97565b92505060406129d685828601612998565b600060408284031215612bfa57612bfa600080fd5b600061290b8484612b97565b67ffffffffffffffff81166128d4565b80356105ce81612c06565b60ff81166128d4565b80356105ce81612c21565b60008060408385031215612c4b57612c4b600080fd5b6000612c578585612c16565b92505060206129d685828601612c2a565b61291781612971565b602081016105ce8284612c68565b63ffffffff81166128d4565b80356105ce81612c7f565b60008083601f840112612cab57612cab600080fd5b50813567ffffffffffffffff811115612cc657612cc6600080fd5b602083019150836040820283011115612ce157612ce1600080fd5b9250929050565b60008083601f840112612cfd57612cfd600080fd5b50813567ffffffffffffffff811115612d1857612d18600080fd5b602083019150836020820283011115612ce157612ce1600080fd5b600080600080600060608688031215612d4e57612d4e600080fd5b6000612d5a8888612c8b565b955050602086013567ffffffffffffffff811115612d7a57612d7a600080fd5b612d8688828901612c96565b9450945050604086013567ffffffffffffffff811115612da857612da8600080fd5b612db488828901612ce8565b92509250509295509295909350565b60008060008060008060006080888a031215612de157612de1600080fd5b6000612ded8a8a612c8b565b975050602088013567ffffffffffffffff811115612e0d57612e0d600080fd5b612e198a828b01612ce8565b9650965050604088013567ffffffffffffffff811115612e3b57612e3b600080fd5b612e478a828b01612c96565b9450945050606088013567ffffffffffffffff811115612e6957612e69600080fd5b612e758a828b01612ce8565b925092505092959891949750929550565b60008060008060808587031215612e9f57612e9f600080fd5b6000612eab8787612998565b9450506020612ebc87828801612998565b9350506040612ecd87828801612998565b9250506060612ede87828801612998565b91505092959194509250565b602f81526000602082017f416363657373436f6e74726f6c3a2063616e206f6e6c792072656e6f756e636581527f20726f6c657320666f722073656c660000000000000000000000000000000000602082015291505b5060400190565b602080825281016105ce81612eea565b602c81526000602082017f46756e6374696f6e206d7573742062652063616c6c6564207468726f7567682081527f64656c656761746563616c6c000000000000000000000000000000000000000060208201529150612f40565b602080825281016105ce81612f57565b602c81526000602082017f46756e6374696f6e206d7573742062652063616c6c6564207468726f7567682081527f6163746976652070726f7879000000000000000000000000000000000000000060208201529150612f40565b602080825281016105ce81612fc1565b603881526000602082017f555550535570677261646561626c653a206d757374206e6f742062652063616c81527f6c6564207468726f7567682064656c656761746563616c6c000000000000000060208201529150612f40565b602080825281016105ce8161302b565b6000602082840312156130aa576130aa600080fd5b600061290b8484612c16565b6000602082840312156130cb576130cb600080fd5b600061290b8484612c2a565b67ffffffffffffffff8116612917565b60ff8116612917565b606081016130fe82866130d7565b61310b60208301856130e7565b61290b6040830184612c68565b6040810161312682856130d7565b6126dc60208301846130e7565b63ffffffff8116612917565b602081016105ce8284613133565b80516105ce8161292b565b60006020828403121561316d5761316d600080fd5b600061290b848461314d565b7f4e487b7100000000000000000000000000000000000000000000000000000000600052601160045260246000fd5b818103818111156105ce576105ce613179565b7f4e487b7100000000000000000000000000000000000000000000000000000000600052603260045260246000fd5b602e81526000602082017f496e697469616c697a61626c653a20636f6e747261637420697320616c72656181527f647920696e697469616c697a656400000000000000000000000000000000000060208201529150612f40565b602080825281016105ce816131ea565b600060ff82166105ce565b61291781613254565b602081016105ce828461325f565b602e81526000602082017f45524331393637557067726164653a206e657720696d706c656d656e7461746981527f6f6e206973206e6f74205555505300000000000000000000000000000000000060208201529150612f40565b602080825281016105ce81613276565b602981526000602082017f45524331393637557067726164653a20756e737570706f727465642070726f7881527f6961626c6555554944000000000000000000000000000000000000000000000060208201529150612f40565b602080825281016105ce816132e0565b600082357fffffffffffffffffffffffffffffffffffffffffffffffffffffffffffffffc13684900301811261338257613382600080fd5b9190910192915050565b60008083357fffffffffffffffffffffffffffffffffffffffffffffffffffffffffffffffe1368590030181126133c5576133c5600080fd5b80840192508235915067ffffffffffffffff8211156133e6576133e6600080fd5b60208301925060018202360383131561340157613401600080fd5b509250929050565b818352600060208401935061341f838584612ae0565b7fffffffffffffffffffffffffffffffffffffffffffffffffffffffffffffffe0601f8401165b9093019392505050565b60a0810161345e82896130d7565b61346b6020830188613133565b613478604083018761295d565b818103606083015261348b818587613409565b905061349a608083018461295d565b979650505050505050565b60005b838110156134c05781810151838201526020016134a8565b50506000910152565b60006134d3825190565b6134e18185602086016134a5565b9290920192915050565b60006126dc82846134c9565b6000613503838361295d565b505060200190565b6000613515825190565b602083018060005b8381101561354257815161353188826134f7565b97506020830192505060010161351d565b509495945050505050565b6000613559828561295d565b60208201915061290b828461350b565b602b81526000602082017f496e697469616c697a61626c653a20636f6e7472616374206973206e6f74206981527f6e697469616c697a696e6700000000000000000000000000000000000000000060208201529150612f40565b602080825281016105ce81613569565b7f416363657373436f6e74726f6c3a206163636f756e74200000000000000000008152601701600061360582856134c9565b7f206973206d697373696e6720726f6c65200000000000000000000000000000008152601101915061290b82846134c9565b6000613641825190565b8084526020840193506136588185602086016134a5565b7fffffffffffffffffffffffffffffffffffffffffffffffffffffffffffffffe0601f820116613446565b602080825281016126dc8184613637565b602d81526000602082017f455243313936373a206e657720696d706c656d656e746174696f6e206973206e81527f6f74206120636f6e74726163740000000000000000000000000000000000000060208201529150612f40565b602080825281016105ce81613694565b601d81526000602082017f416464726573733a20696e73756666696369656e742062616c616e6365000000815291505b5060200190565b602080825281016105ce816136fe565b6000816105ce565b603a81526000602082017f416464726573733a20756e61626c6520746f2073656e642076616c75652c207281527f6563697069656e74206d6179206861766520726576657274656400000000000060208201529150612f40565b602080825281016105ce8161374d565b8181028082158382048514176137cf576137cf613179565b5092915050565b808201808211156105ce576105ce613179565b6000816137f8576137f8613179565b507fffffffffffffffffffffffffffffffffffffffffffffffffffffffffffffffff0190565b60208082527f537472696e67733a20686578206c656e67746820696e73756666696369656e749101908152600061372e565b602080825281016105ce8161381e565b602681526000602082017f416464726573733a2064656c65676174652063616c6c20746f206e6f6e2d636f81527f6e7472616374000000000000000000000000000000000000000000000000000060208201529150612f40565b602080825281016105ce8161386056fe416464726573733a206c6f772d6c6576656c2064656c65676174652063616c6c206661696c6564a26469706673582212207b66831303954c5fe465cf265ca2e6275df4c85d2d0dca37da8eee096c49199564736f6c63430008130033","linkReferences":{}},"methodIdentifiers":{"AXIOM_ROLE()":"2b7d2bad","DEFAULT_ADMIN_ROLE()":"a217fddf","GUARDIAN_ROLE()":"24ea54f4","PROVER_ROLE()":"dc9a4ef6","TIMELOCK_ROLE()":"f288a2e2","UNFREEZE_ROLE()":"c608b5e8","addChannel((uint64,uint8),address)":"72bb58ea","axiomCoreAddress()":"cddc3b93","channelToBroadcastModule(uint64,uint8)":"984507d1","freezeAll()":"99464c89","frozen()":"054f7d9c","getRoleAdmin(bytes32)":"248a9ca3","grantRole(bytes32,address)":"2f2ff15d","hasRole(bytes32,address)":"91d14854","initialize(address,address,address,address)":"f8c8765e","proxiableUUID()":"52d1902d","removeChannel((uint64,uint8))":"78e98859","renounceRole(bytes32,address)":"36568abe","revokeRole(bytes32,address)":"d547741f","sendBlockhashPmmr(uint32,(uint64,uint8)[],(bytes,uint256)[])":"c78aaefa","sendLatestBlockhashPmmr(uint32,bytes32[],(uint64,uint8)[],(bytes,uint256)[])":"eb607c57","supportsInterface(bytes4)":"01ffc9a7","unfreezeAll()":"66c5c4a0","upgradeTo(address)":"3659cfe6","upgradeToAndCall(address,bytes)":"4f1ef286"},"id":0}