{"abi":[{"type":"constructor","inputs":[],"stateMutability":"nonpayable"},{"type":"function","name":"AXIOM_ROLE","inputs":[],"outputs":[{"name":"","type":"bytes32","internalType":"bytes32"}],"stateMutability":"view"},{"type":"function","name":"DEFAULT_ADMIN_ROLE","inputs":[],"outputs":[{"name":"","type":"bytes32","internalType":"bytes32"}],"stateMutability":"view"},{"type":"function","name":"GUARDIAN_ROLE","inputs":[],"outputs":[{"name":"","type":"bytes32","internalType":"bytes32"}],"stateMutability":"view"},{"type":"function","name":"PROVER_ROLE","inputs":[],"outputs":[{"name":"","type":"bytes32","internalType":"bytes32"}],"stateMutability":"view"},{"type":"function","name":"TIMELOCK_ROLE","inputs":[],"outputs":[{"name":"","type":"bytes32","internalType":"bytes32"}],"stateMutability":"view"},{"type":"function","name":"UNFREEZE_ROLE","inputs":[],"outputs":[{"name":"","type":"bytes32","internalType":"bytes32"}],"stateMutability":"view"},{"type":"function","name":"appendHistoricalPMMR","inputs":[{"name":"startBlockNumber","type":"uint32","internalType":"uint32"},{"name":"roots","type":"bytes32[]","internalType":"bytes32[]"},{"name":"prevHashes","type":"bytes32[]","internalType":"bytes32[]"},{"name":"lastNumFinal","type":"uint32","internalType":"uint32"}],"outputs":[],"stateMutability":"nonpayable"},{"type":"function","name":"blockhashPmmr","inputs":[],"outputs":[{"name":"completeLeaves","type":"tuple","internalType":"struct MerkleMountainRange.MMR","components":[{"name":"peaks","type":"bytes32[32]","internalType":"bytes32[32]"},{"name":"peaksLength","type":"uint256","internalType":"uint256"}]},{"name":"paddedLeaf","type":"bytes32","internalType":"bytes32"},{"name":"size","type":"uint32","internalType":"uint32"}],"stateMutability":"view"},{"type":"function","name":"blockhashPmmrLeaf","inputs":[],"outputs":[{"name":"","type":"bytes32","internalType":"bytes32"}],"stateMutability":"view"},{"type":"function","name":"blockhashPmmrPeaks","inputs":[],"outputs":[{"name":"","type":"tuple","internalType":"struct MerkleMountainRange.MMR","components":[{"name":"peaks","type":"bytes32[32]","internalType":"bytes32[32]"},{"name":"peaksLength","type":"uint256","internalType":"uint256"}]}],"stateMutability":"view"},{"type":"function","name":"blockhashPmmrSize","inputs":[],"outputs":[{"name":"pmmrSize","type":"uint32","internalType":"uint32"}],"stateMutability":"view"},{"type":"function","name":"freezeAll","inputs":[],"outputs":[],"stateMutability":"nonpayable"},{"type":"function","name":"frozen","inputs":[],"outputs":[{"name":"","type":"bool","internalType":"bool"}],"stateMutability":"view"},{"type":"function","name":"fullBlockhashPmmr","inputs":[],"outputs":[{"name":"","type":"tuple","internalType":"struct PaddedMerkleMountainRange.PMMR","components":[{"name":"completeLeaves","type":"tuple","internalType":"struct MerkleMountainRange.MMR","components":[{"name":"peaks","type":"bytes32[32]","internalType":"bytes32[32]"},{"name":"peaksLength","type":"uint256","internalType":"uint256"}]},{"name":"paddedLeaf","type":"bytes32","internalType":"bytes32"},{"name":"size","type":"uint32","internalType":"uint32"}]}],"stateMutability":"view"},{"type":"function","name":"getRoleAdmin","inputs":[{"name":"role","type":"bytes32","internalType":"bytes32"}],"outputs":[{"name":"","type":"bytes32","internalType":"bytes32"}],"stateMutability":"view"},{"type":"function","name":"grantRole","inputs":[{"name":"role","type":"bytes32","internalType":"bytes32"},{"name":"account","type":"address","internalType":"address"}],"outputs":[],"stateMutability":"nonpayable"},{"type":"function","name":"hasRole","inputs":[{"name":"role","type":"bytes32","internalType":"bytes32"},{"name":"account","type":"address","internalType":"address"}],"outputs":[{"name":"","type":"bool","internalType":"bool"}],"stateMutability":"view"},{"type":"function","name":"historicalRoots","inputs":[{"name":"","type":"uint32","internalType":"uint32"}],"outputs":[{"name":"","type":"bytes32","internalType":"bytes32"}],"stateMutability":"view"},{"type":"function","name":"historicalVerifierAddress","inputs":[],"outputs":[{"name":"","type":"address","internalType":"address"}],"stateMutability":"view"},{"type":"function","name":"initialize","inputs":[{"name":"_verifierAddress","type":"address","internalType":"address"},{"name":"_historicalVerifierAddress","type":"address","internalType":"address"},{"name":"timelock","type":"address","internalType":"address"},{"name":"guardian","type":"address","internalType":"address"},{"name":"unfreeze","type":"address","internalType":"address"},{"name":"prover","type":"address","internalType":"address"}],"outputs":[],"stateMutability":"nonpayable"},{"type":"function","name":"isBlockHashValid","inputs":[{"name":"witness","type":"tuple","internalType":"struct IAxiomV2Verifier.BlockHashWitness","components":[{"name":"blockNumber","type":"uint32","internalType":"uint32"},{"name":"claimedBlockHash","type":"bytes32","internalType":"bytes32"},{"name":"prevHash","type":"bytes32","internalType":"bytes32"},{"name":"numFinal","type":"uint32","internalType":"uint32"},{"name":"merkleProof","type":"bytes32[]","internalType":"bytes32[]"}]}],"outputs":[{"name":"","type":"bool","internalType":"bool"}],"stateMutability":"view"},{"type":"function","name":"isRecentBlockHashValid","inputs":[{"name":"blockNumber","type":"uint32","internalType":"uint32"},{"name":"claimedBlockHash","type":"bytes32","internalType":"bytes32"}],"outputs":[{"name":"","type":"bool","internalType":"bool"}],"stateMutability":"view"},{"type":"function","name":"pmmrSnapshots","inputs":[{"name":"","type":"uint32","internalType":"uint32"}],"outputs":[{"name":"","type":"bytes32","internalType":"bytes32"}],"stateMutability":"view"},{"type":"function","name":"proxiableUUID","inputs":[],"outputs":[{"name":"","type":"bytes32","internalType":"bytes32"}],"stateMutability":"view"},{"type":"function","name":"renounceRole","inputs":[{"name":"role","type":"bytes32","internalType":"bytes32"},{"name":"account","type":"address","internalType":"address"}],"outputs":[],"stateMutability":"nonpayable"},{"type":"function","name":"revokeRole","inputs":[{"name":"role","type":"bytes32","internalType":"bytes32"},{"name":"account","type":"address","internalType":"address"}],"outputs":[],"stateMutability":"nonpayable"},{"type":"function","name":"supportsInterface","inputs":[{"name":"interfaceId","type":"bytes4","internalType":"bytes4"}],"outputs":[{"name":"","type":"bool","internalType":"bool"}],"stateMutability":"view"},{"type":"function","name":"unfreezeAll","inputs":[],"outputs":[],"stateMutability":"nonpayable"},{"type":"function","name":"updateHistorical","inputs":[{"name":"nextRoot","type":"bytes32","internalType":"bytes32"},{"name":"nextNumFinal","type":"uint32","internalType":"uint32"},{"name":"roots","type":"bytes32[128]","internalType":"bytes32[128]"},{"name":"endHashProofs","type":"bytes32[11][127]","internalType":"bytes32[11][127]"},{"name":"proofData","type":"bytes","internalType":"bytes"}],"outputs":[],"stateMutability":"nonpayable"},{"type":"function","name":"updateOld","inputs":[{"name":"nextRoot","type":"bytes32","internalType":"bytes32"},{"name":"nextNumFinal","type":"uint32","internalType":"uint32"},{"name":"proofData","type":"bytes","internalType":"bytes"}],"outputs":[],"stateMutability":"nonpayable"},{"type":"function","name":"updateRecent","inputs":[{"name":"proofData","type":"bytes","internalType":"bytes"}],"outputs":[],"stateMutability":"nonpayable"},{"type":"function","name":"upgradeHistoricalSnarkVerifier","inputs":[{"name":"_historicalVerifierAddress","type":"address","internalType":"address"}],"outputs":[],"stateMutability":"nonpayable"},{"type":"function","name":"upgradeSnarkVerifier","inputs":[{"name":"_verifierAddress","type":"address","internalType":"address"}],"outputs":[],"stateMutability":"nonpayable"},{"type":"function","name":"upgradeTo","inputs":[{"name":"newImplementation","type":"address","internalType":"address"}],"outputs":[],"stateMutability":"nonpayable"},{"type":"function","name":"upgradeToAndCall","inputs":[{"name":"newImplementation","type":"address","internalType":"address"},{"name":"data","type":"bytes","internalType":"bytes"}],"outputs":[],"stateMutability":"payable"},{"type":"function","name":"verifierAddress","inputs":[],"outputs":[{"name":"","type":"address","internalType":"address"}],"stateMutability":"view"},{"type":"event","name":"AdminChanged","inputs":[{"name":"previousAdmin","type":"address","indexed":false,"internalType":"address"},{"name":"newAdmin","type":"address","indexed":false,"internalType":"address"}],"anonymous":false},{"type":"event","name":"BeaconUpgraded","inputs":[{"name":"beacon","type":"address","indexed":true,"internalType":"address"}],"anonymous":false},{"type":"event","name":"FreezeAll","inputs":[],"anonymous":false},{"type":"event","name":"HistoricalRootUpdated","inputs":[{"name":"startBlockNumber","type":"uint32","indexed":true,"internalType":"uint32"},{"name":"prevHash","type":"bytes32","indexed":false,"internalType":"bytes32"},{"name":"root","type":"bytes32","indexed":false,"internalType":"bytes32"},{"name":"numFinal","type":"uint32","indexed":false,"internalType":"uint32"}],"anonymous":false},{"type":"event","name":"Initialized","inputs":[{"name":"version","type":"uint8","indexed":false,"internalType":"uint8"}],"anonymous":false},{"type":"event","name":"PaddedMerkleMountainRangeUpdated","inputs":[{"name":"commitment","type":"bytes32","indexed":true,"internalType":"bytes32"},{"name":"pmmrSize","type":"uint32","indexed":false,"internalType":"uint32"}],"anonymous":false},{"type":"event","name":"RoleAdminChanged","inputs":[{"name":"role","type":"bytes32","indexed":true,"internalType":"bytes32"},{"name":"previousAdminRole","type":"bytes32","indexed":true,"internalType":"bytes32"},{"name":"newAdminRole","type":"bytes32","indexed":true,"internalType":"bytes32"}],"anonymous":false},{"type":"event","name":"RoleGranted","inputs":[{"name":"role","type":"bytes32","indexed":true,"internalType":"bytes32"},{"name":"account","type":"address","indexed":true,"internalType":"address"},{"name":"sender","type":"address","indexed":true,"internalType":"address"}],"anonymous":false},{"type":"event","name":"RoleRevoked","inputs":[{"name":"role","type":"bytes32","indexed":true,"internalType":"bytes32"},{"name":"account","type":"address","indexed":true,"internalType":"address"},{"name":"sender","type":"address","indexed":true,"internalType":"address"}],"anonymous":false},{"type":"event","name":"UnfreezeAll","inputs":[],"anonymous":false},{"type":"event","name":"UpgradeHistoricalSnarkVerifier","inputs":[{"name":"newAddress","type":"address","indexed":false,"internalType":"address"}],"anonymous":false},{"type":"event","name":"UpgradeSnarkVerifier","inputs":[{"name":"newAddress","type":"address","indexed":false,"internalType":"address"}],"anonymous":false},{"type":"event","name":"Upgraded","inputs":[{"name":"implementation","type":"address","indexed":true,"internalType":"address"}],"anonymous":false},{"type":"error","name":"AxiomBlockVerificationFailed","inputs":[]},{"type":"error","name":"BlockHashIncorrect","inputs":[]},{"type":"error","name":"ContractIsFrozen","inputs":[]},{"type":"error","name":"GuardianAddressIsZero","inputs":[]},{"type":"error","name":"HistoricalVerifierAddressIsZero","inputs":[]},{"type":"error","name":"IncorrectNumberOfBlocks","inputs":[]},{"type":"error","name":"InvalidEmptyHashDepth","inputs":[]},{"type":"error","name":"MerkleProofFailed","inputs":[]},{"type":"error","name":"NotAxiomRole","inputs":[]},{"type":"error","name":"NotProverRole","inputs":[]},{"type":"error","name":"NotRecentEndBlock","inputs":[]},{"type":"error","name":"PmmrLeafIsNotEmpty","inputs":[]},{"type":"error","name":"PmmrLeafIsTooBig","inputs":[]},{"type":"error","name":"ProverAddressIsZero","inputs":[]},{"type":"error","name":"SNARKVerificationFailed","inputs":[]},{"type":"error","name":"StartingBlockNotValid","inputs":[]},{"type":"error","name":"TimelockAddressIsZero","inputs":[]},{"type":"error","name":"UnfreezeAddressIsZero","inputs":[]},{"type":"error","name":"VerifierAddressIsZero","inputs":[]}],"bytecode":{"object":"0x60a0604052306080523480156200001557600080fd5b506200002062000026565b62000164565b600054610100900460ff161562000074576040517f08c379a00000000000000000000000000000000000000000000000000000000081526004016200006b90620000ec565b60405180910390fd5b60005460ff9081161015620000ea57600080547fffffffffffffffffffffffffffffffffffffffffffffffffffffffffffffff001660ff9081179091556040517f7f26b83ff96e1f2b6a682f133852f6798a09c465da95921460cefb384740249891620000e19162000154565b60405180910390a15b565b602080825281016200014e81602781527f496e697469616c697a61626c653a20636f6e747261637420697320696e69746960208201527f616c697a696e6700000000000000000000000000000000000000000000000000604082015260600190565b92915050565b60ff82168152602081016200014e565b608051614d656200019c60003960008181610ea401528181610efe01528181610ffd01528181611057015261115e0152614d656000f3fe60806040526004361061024f5760003560e01c80637225fb2111610138578063c608b5e8116100b0578063dc9a4ef61161007f578063ee5ead6011610064578063ee5ead6014610726578063f288a2e214610746578063fe9ccb601461077a57600080fd5b8063dc9a4ef6146106d2578063dd3c91781461070657600080fd5b8063c608b5e814610630578063c6ca475314610664578063cc2a9a5b14610692578063d547741f146106b257600080fd5b8063a217fddf11610107578063adfc424c116100ec578063adfc424c146105ca578063b16fc75d146105ec578063c1f7cae21461061057600080fd5b8063a217fddf14610595578063ac59e61c146105aa57600080fd5b80637225fb21146104ed578063853ead4a1461050d57806391d148541461052d57806399464c891461058057600080fd5b806336568abe116101cb57806352d1902d1161019a578063596ef8a71161017f578063596ef8a7146104865780635ed36613146104aa57806366c5c4a0146104d857600080fd5b806352d1902d1461045b57806357b835f21461047057600080fd5b806336568abe146103e65780633659cfe6146104065780634f1ef286146104265780635144eeec1461043957600080fd5b806318bdffbb1161022257806324ea54f41161020757806324ea54f41461035e5780632b7d2bad146103925780632f2ff15d146103c657600080fd5b806318bdffbb146102e6578063248a9ca31461032157600080fd5b806301ef3afa1461025457806301ffc9a714610276578063054f7d9c146102ac57806311b63d01146102c6575b600080fd5b34801561026057600080fd5b5061027461026f366004613b72565b6107a8565b005b34801561028257600080fd5b50610296610291366004613bf4565b610b8a565b6040516102a39190613c1f565b60405180910390f35b3480156102b857600080fd5b506097546102969060ff1681565b3480156102d257600080fd5b506102746102e1366004613c55565b610bc5565b3480156102f257600080fd5b50610124546103149073ffffffffffffffffffffffffffffffffffffffff1681565b6040516102a39190613cea565b34801561032d57600080fd5b5061035161033c366004613cf8565b60009081526065602052604090206001015490565b6040516102a39190613d1f565b34801561036a57600080fd5b506103517f55435dd261a4b9b3364963f7738a7a662ad9c84396d64be3365284bb7f0a504181565b34801561039e57600080fd5b506103517f542178611b653a605b79640db9b52a7afa591d6ace75cd36686e0ee264f4f57281565b3480156103d257600080fd5b506102746103e1366004613d41565b610dfd565b3480156103f257600080fd5b50610274610401366004613d41565b610e27565b34801561041257600080fd5b50610274610421366004613d7e565b610e8d565b610274610434366004613eef565b610fe6565b34801561044557600080fd5b5061044e61112c565b6040516102a39190613ff1565b34801561046757600080fd5b50610351611144565b34801561047c57600080fd5b5061014854610351565b34801561049257600080fd5b506101495463ffffffff166040516102a39190614000565b3480156104b657600080fd5b506103516104c536600461400e565b61014a6020526000908152604090205481565b3480156104e457600080fd5b506102746111da565b3480156104f957600080fd5b50610274610508366004614059565b611258565b34801561051957600080fd5b50610274610528366004613d7e565b6116ae565b34801561053957600080fd5b50610296610548366004613d41565b600091825260656020908152604080842073ffffffffffffffffffffffffffffffffffffffff93909316845291905290205460ff1690565b34801561058c57600080fd5b506102746117a2565b3480156105a157600080fd5b50610351600081565b3480156105b657600080fd5b506102746105c5366004613d7e565b611823565b3480156105d657600080fd5b506105df61190b565b6040516102a391906140f2565b3480156105f857600080fd5b5061060161191e565b6040516102a393929190614101565b34801561061c57600080fd5b5061029661062b36600461412c565b611978565b34801561063c57600080fd5b506103517ff4e710c64967f31ba1090db2a7dd9e704155d00947ce853da47446cb68ee65da81565b34801561067057600080fd5b5061035161067f36600461400e565b6101266020526000908152604090205481565b34801561069e57600080fd5b506102746106ad36600461415f565b6119c4565b3480156106be57600080fd5b506102746106cd366004613d41565b611e5a565b3480156106de57600080fd5b506103517f60044782a422109ac08a415e44260ad5d3bad63d96ebe1fac0363399642ee3f281565b34801561071257600080fd5b50610296610721366004614204565b611e7f565b34801561073257600080fd5b5061027461074136600461428a565b612039565b34801561075257600080fd5b506103517ff66846415d2bf9eabda9e84793ff9c0ea96d87f50fc41e66aa16469c6a442f0581565b34801561078657600080fd5b50610125546103149073ffffffffffffffffffffffffffffffffffffffff1681565b6107b06123e4565b6107b86124a2565b60008060008060006107ca87876124df565b94509450945094509450600083836107e2919061434e565b6107ed90600161436e565b905061040063ffffffff82161115610831576040517f28e21b9700000000000000000000000000000000000000000000000000000000815260040160405180910390fd5b61083d610400856143bd565b63ffffffff161561087a576040517f5eb1350600000000000000000000000000000000000000000000000000000000815260040160405180910390fd5b438363ffffffff16106108b9576040517faef3422900000000000000000000000000000000000000000000000000000000815260040160405180910390fd5b6101006108cc63ffffffff8516436143db565b1115610904576040517faef3422900000000000000000000000000000000000000000000000000000000815260040160405180910390fd5b848363ffffffff164014610944576040517fa46ad57500000000000000000000000000000000000000000000000000000000815260040160405180910390fd5b61094e88886125dc565b610984576040517f1355d9a600000000000000000000000000000000000000000000000000000000815260040160405180910390fd5b600061099161012761265b565b905082610a145760005b600a811015610a125760006109cd8b8b846109b86001600a61434e565b63ffffffff166109c891906143db565b61268c565b905080156109ea5760008181526020869052604090209450610a09565b610a06856109f78461274c565b60009182526020526040902090565b94505b5060010161099b565b505b8463ffffffff16816040015163ffffffff1610158015610a4457508363ffffffff16816040015163ffffffff1611155b15610ae3576000610a59826104008686612937565b9050610a6861012783836129ff565b6000610a7383612a55565b90508061014a6000610a8689600161436e565b63ffffffff1663ffffffff16815260200190815260200160002081905550807fa913f532bb19d8d4e81c3b0b5e83e90b57152693da6f0c1b53110241d9db68398460400151604051610ad89190614000565b60405180910390a250505b868383604051602001610af893929190614409565b604080517fffffffffffffffffffffffffffffffffffffffffffffffffffffffffffffffe0818403018152828252805160209182012063ffffffff891660008181526101269093529290912055907f71c7303b6eab390db8d0d18c6c3aae2906f6f881861bbc6ee21a858a7af3f4c390610b77908a9087908790614440565b60405180910390a2505050505050505050565b60007fffffffff0000000000000000000000000000000000000000000000000000000082161580610bbf5750610bbf82612b27565b92915050565b610bcd6123e4565b610bd56124a2565b6000806000806000610be787876124df565b9450945094509450945061040083610bff91906143bd565b63ffffffff1615610c3c576040517f5eb1350600000000000000000000000000000000000000000000000000000000815260040160405180910390fd5b610c49600161040061434e565b63ffffffff16610c59848461434e565b63ffffffff1614610c96576040517f28e21b9700000000000000000000000000000000000000000000000000000000815260040160405180910390fd5b838989604051602001610cab93929190614409565b604051602081830303815290604052805190602001206101266000846001610cd3919061436e565b63ffffffff1663ffffffff1681526020019081526020016000205414610d25576040517fa46ad57500000000000000000000000000000000000000000000000000000000815260040160405180910390fd5b610d2f87876125dc565b610d65576040517f1355d9a600000000000000000000000000000000000000000000000000000000815260040160405180910390fd5b8481610400604051602001610d7c93929190614409565b604080517fffffffffffffffffffffffffffffffffffffffffffffffffffffffffffffffe0818403018152828252805160209182012063ffffffff871660008181526101269093529290912055907f71c7303b6eab390db8d0d18c6c3aae2906f6f881861bbc6ee21a858a7af3f4c390610b77908890859061040090614440565b600082815260656020526040902060010154610e1881612bbe565b610e228383612bc8565b505050565b73ffffffffffffffffffffffffffffffffffffffff81163314610e7f576040517f08c379a0000000000000000000000000000000000000000000000000000000008152600401610e76906144c5565b60405180910390fd5b610e898282612cbc565b5050565b73ffffffffffffffffffffffffffffffffffffffff7f0000000000000000000000000000000000000000000000000000000000000000163003610efc576040517f08c379a0000000000000000000000000000000000000000000000000000000008152600401610e769061452f565b7f000000000000000000000000000000000000000000000000000000000000000073ffffffffffffffffffffffffffffffffffffffff16610f717f360894a13ba1a3210667c828492db98dca3e2076cc3735a920a3ca505d382bbc5473ffffffffffffffffffffffffffffffffffffffff1690565b73ffffffffffffffffffffffffffffffffffffffff1614610fbe576040517f08c379a0000000000000000000000000000000000000000000000000000000008152600401610e7690614599565b610fc781612d77565b60408051600080825260208201909252610fe391839190612da1565b50565b73ffffffffffffffffffffffffffffffffffffffff7f0000000000000000000000000000000000000000000000000000000000000000163003611055576040517f08c379a0000000000000000000000000000000000000000000000000000000008152600401610e769061452f565b7f000000000000000000000000000000000000000000000000000000000000000073ffffffffffffffffffffffffffffffffffffffff166110ca7f360894a13ba1a3210667c828492db98dca3e2076cc3735a920a3ca505d382bbc5473ffffffffffffffffffffffffffffffffffffffff1690565b73ffffffffffffffffffffffffffffffffffffffff1614611117576040517f08c379a0000000000000000000000000000000000000000000000000000000008152600401610e7690614599565b61112082612d77565b610e8982826001612da1565b611134613aba565b61113f61012761265b565b905090565b60003073ffffffffffffffffffffffffffffffffffffffff7f000000000000000000000000000000000000000000000000000000000000000016146111b5576040517f08c379a0000000000000000000000000000000000000000000000000000000008152600401610e7690614603565b507f360894a13ba1a3210667c828492db98dca3e2076cc3735a920a3ca505d382bbc90565b7ff4e710c64967f31ba1090db2a7dd9e704155d00947ce853da47446cb68ee65da61120481612bbe565b609780547fffffffffffffffffffffffffffffffffffffffffffffffffffffffffffffff001690556040517fe6fdbf73945dd61794a752b9181ea29f77170a7b1ffd37e0a7ff9d2c6f7258b990600090a150565b6112606123e4565b6112686124a2565b600080600080600061127a87876124df565b945094509450945094506104008361129291906143bd565b63ffffffff16156112cf576040517f5eb1350600000000000000000000000000000000000000000000000000000000815260040160405180910390fd5b6112dd60016202000061434e565b63ffffffff166112ed848461434e565b63ffffffff161461132a576040517f28e21b9700000000000000000000000000000000000000000000000000000000815260040160405180910390fd5b838b8b60405160200161133f93929190614409565b604051602081830303815290604052805190602001206101266000846001611367919061436e565b63ffffffff1663ffffffff16815260200190815260200160002054146113b9576040517fa46ad57500000000000000000000000000000000000000000000000000000000815260040160405180910390fd5b806113ec8a6080806020026040519081016040528092919082608060200280828437600092019190915250612ef4915050565b14611423576040517ff4c360f500000000000000000000000000000000000000000000000000000000815260040160405180910390fd5b61142d87876130a3565b611463576040517f1355d9a600000000000000000000000000000000000000000000000000000000815260040160405180910390fd5b60005b60808110156116a05761147b6001608061434e565b63ffffffff16811461156d5760008982607f811061149b5761149b614613565b6101600201600a6020020135905060005b600a81101561151b576115118b84607f81106114ca576114ca614613565b6101600201826114dc6001600a61434e565b63ffffffff166114ec91906143db565b600b81106114fc576114fc614613565b60200201358360009182526020526040902090565b91506001016114ac565b508a826080811061152e5761152e614613565b6020020135811461156b576040517ff4c360f500000000000000000000000000000000000000000000000000000000815260040160405180910390fd5b505b600081156115a257896115816001846143db565b607f811061159157611591614613565b6101600201600a60200201356115a4565b865b905060006115b461040084614642565b6115c49063ffffffff8816614661565b9050818c84608081106115d9576115d9614613565b60200201356104006040516020016115f393929190614409565b604080517fffffffffffffffffffffffffffffffffffffffffffffffffffffffffffffffe0818403018152918152815160209283012063ffffffff8416600081815261012690945291909220919091557f71c7303b6eab390db8d0d18c6c3aae2906f6f881861bbc6ee21a858a7af3f4c3838e866080811061167757611677614613565b602002013561040060405161168e93929190614440565b60405180910390a25050600101611466565b505050505050505050505050565b7ff66846415d2bf9eabda9e84793ff9c0ea96d87f50fc41e66aa16469c6a442f056116d881612bbe565b73ffffffffffffffffffffffffffffffffffffffff8216611725576040517f3815ff6600000000000000000000000000000000000000000000000000000000815260040160405180910390fd5b61012480547fffffffffffffffffffffffff00000000000000000000000000000000000000001673ffffffffffffffffffffffffffffffffffffffff84161790556040517f0f7ba11d4e9d02c6ec9175a0134522c2f112de7cfdb2cea3f888e7eeae24c9dd90611796908490613cea565b60405180910390a15050565b7f55435dd261a4b9b3364963f7738a7a662ad9c84396d64be3365284bb7f0a50416117cc81612bbe565b609780547fffffffffffffffffffffffffffffffffffffffffffffffffffffffffffffff001660011790556040517f61340a1b154d5d21d259a74bf95379201799b9d12cc6509bb46cb56dc281df5590600090a150565b7ff66846415d2bf9eabda9e84793ff9c0ea96d87f50fc41e66aa16469c6a442f0561184d81612bbe565b73ffffffffffffffffffffffffffffffffffffffff821661189a576040517ffe98f3bc00000000000000000000000000000000000000000000000000000000815260040160405180910390fd5b61012580547fffffffffffffffffffffffff00000000000000000000000000000000000000001673ffffffffffffffffffffffffffffffffffffffff84161790556040517f1431075dc15e519b4b9b0b93ea4f7f3e2a34fde5e39f552bb899b7ea4bda134190611796908490613cea565b611913613ae1565b61113f6101276130d5565b6040805161044081018083526101279283918391820190839060209082845b81548152602001906001019080831161193d575050509183525050602091820154910152602182015460229092015490919063ffffffff1683565b600063ffffffff8316408082036119bb576040517fa46ad57500000000000000000000000000000000000000000000000000000000815260040160405180910390fd5b90911492915050565b600054610100900460ff16158080156119e45750600054600160ff909116105b806119fe5750303b1580156119fe575060005460ff166001145b611a34576040517f08c379a0000000000000000000000000000000000000000000000000000000008152600401610e76906146ce565b600080547fffffffffffffffffffffffffffffffffffffffffffffffffffffffffffffff001660011790558015611a9257600080547fffffffffffffffffffffffffffffffffffffffffffffffffffffffffffff00ff166101001790555b73ffffffffffffffffffffffffffffffffffffffff8716611adf576040517f3815ff6600000000000000000000000000000000000000000000000000000000815260040160405180910390fd5b73ffffffffffffffffffffffffffffffffffffffff8616611b2c576040517ffe98f3bc00000000000000000000000000000000000000000000000000000000815260040160405180910390fd5b73ffffffffffffffffffffffffffffffffffffffff8516611b79576040517fd5ae8cf700000000000000000000000000000000000000000000000000000000815260040160405180910390fd5b73ffffffffffffffffffffffffffffffffffffffff8416611bc6576040517f40c2354200000000000000000000000000000000000000000000000000000000815260040160405180910390fd5b73ffffffffffffffffffffffffffffffffffffffff8316611c13576040517f6d92bcf300000000000000000000000000000000000000000000000000000000815260040160405180910390fd5b73ffffffffffffffffffffffffffffffffffffffff8216611c60576040517ffbc5fc2f00000000000000000000000000000000000000000000000000000000815260040160405180910390fd5b611c6861312f565b611c70613170565b610124805473ffffffffffffffffffffffffffffffffffffffff808a167fffffffffffffffffffffffff0000000000000000000000000000000000000000928316179092556101258054928916929091169190911790556040517f0f7ba11d4e9d02c6ec9175a0134522c2f112de7cfdb2cea3f888e7eeae24c9dd90611cf7908990613cea565b60405180910390a17f1431075dc15e519b4b9b0b93ea4f7f3e2a34fde5e39f552bb899b7ea4bda134186604051611d2e9190613cea565b60405180910390a1611d41600086612bc8565b611d6b7ff66846415d2bf9eabda9e84793ff9c0ea96d87f50fc41e66aa16469c6a442f0586612bc8565b611d957f60044782a422109ac08a415e44260ad5d3bad63d96ebe1fac0363399642ee3f283612bc8565b611dbf7f55435dd261a4b9b3364963f7738a7a662ad9c84396d64be3365284bb7f0a504185612bc8565b611de97ff4e710c64967f31ba1090db2a7dd9e704155d00947ce853da47446cb68ee65da84612bc8565b8015611e5157600080547fffffffffffffffffffffffffffffffffffffffffffffffffffffffffffff00ff1690556040517f7f26b83ff96e1f2b6a682f133852f6798a09c465da95921460cefb384740249890611e48906001906146f2565b60405180910390a15b50505050505050565b600082815260656020526040902060010154611e7581612bbe565b610e228383612cbc565b600060208201358103611ebe576040517fa46ad57500000000000000000000000000000000000000000000000000000000815260040160405180910390fd5b6000610400611ed0602085018561400e565b611eda91906143bd565b9050600081611eec602086018661400e565b611ef6919061434e565b63ffffffff811660009081526101266020526040812054919250819003611f49576040517ff4c360f500000000000000000000000000000000000000000000000000000000815260040160405180910390fd5b602085013560005b600a811015611fed57600163ffffffff8616821c16600003611fab57611fa482611f7e60808a018a614700565b84818110611f8e57611f8e614613565b9050602002013560009182526020526040902090565b9150611fe5565b611fe2611fbb6080890189614700565b83818110611fcb57611fcb614613565b905060200201358360009182526020526040902090565b91505b600101611f51565b506040860135816120046080890160608a0161400e565b60405160200161201693929190614409565b604051602081830303815290604052805190602001208214945050505050919050565b6120416124a2565b600061204e61012761265b565b905084158061205d5750848314155b806120945750610400816040015161207591906143bd565b8160400151612084919061434e565b63ffffffff168763ffffffff1614155b156120cb576040517f28e21b9700000000000000000000000000000000000000000000000000000000815260040160405180910390fd5b6120da81610400600080612937565b506000805b6120ea6001886143db565b8110156121d45785858281811061210357612103614613565b9050602002013588888381811061211c5761211c614613565b9050602002013561040060405160200161213893929190614409565b604080517fffffffffffffffffffffffffffffffffffffffffffffffffffffffffffffffe0818403018152918152815160209283012063ffffffff8c16600090815261012690935291205490925082146121be576040517f612489a100000000000000000000000000000000000000000000000000000000815260040160405180910390fd5b6121ca6104008a61436e565b98506001016120df565b50600061223361040089838a6121eb6001826143db565b926121f89392919061477b565b808060200260200160405190810160405280939291908181526020018383602002808284376000920191909152508894939250506131db9050565b9050858561224260018a6143db565b81811061225157612251614613565b6020029190910135905088886122686001826143db565b81811061227757612277614613565b905060200201358560405160200161229193929190614409565b604080517fffffffffffffffffffffffffffffffffffffffffffffffffffffffffffffffe0818403018152918152815160209283012063ffffffff8c1660009081526101269093529120549092508214612317576040517f612489a100000000000000000000000000000000000000000000000000000000815260040160405180910390fd5b600061234d6104008a8a61232c6001826143db565b81811061233b5761233b614613565b88939260209091020135905088612937565b90508181111561235b578091505b600061236685612a55565b60408087015163ffffffff908116600090815261014a6020529190912082905590915061239b9061012790879086906129ff16565b807fa913f532bb19d8d4e81c3b0b5e83e90b57152693da6f0c1b53110241d9db683986604001516040516123cf9190614000565b60405180910390a25050505050505050505050565b600080527f16d6d09ad43c2e13327e8e85b0f16a19ef2e63b72c391bfd77d21c5d499021856020527fdf4fae2a9d03ddefae2c9e431bd1ae49d400972b66abd41187abff73623b3c4b5460ff168061246a57503360009081527f16d6d09ad43c2e13327e8e85b0f16a19ef2e63b72c391bfd77d21c5d49902185602052604090205460ff165b6124a0576040517f6692e47700000000000000000000000000000000000000000000000000000000815260040160405180910390fd5b565b60975460ff16156124a0576040517f379dfc6300000000000000000000000000000000000000000000000000000000815260040160405180910390fd5b6000808080806124f56101c06101a0888a6147ae565b6124fe916147de565b60806125106101a06101808a8c6147ae565b612519916147de565b901b17945061252e6102006101e0888a6147ae565b612537916147de565b60806125496101e06101c08a8c6147ae565b612552916147de565b901b17935061256761021c610218888a6147ae565b61257091614827565b60e01c925061258561022061021c888a6147ae565b61258e91614827565b60e01c91506125a3610260610240888a6147ae565b6125ac916147de565b60806125be6102406102208a8c6147ae565b6125c7916147de565b60001c901b1760001b90509295509295909350565b61012454604051600091829173ffffffffffffffffffffffffffffffffffffffff9091169061260e9086908690614898565b6000604051808303816000865af19150503d806000811461264b576040519150601f19603f3d011682016040523d82523d6000602084013e612650565b606091505b509095945050505050565b612663613aba565b61266c826130d5565b81526021820154602082015260229091015463ffffffff16604082015290565b6000838361269b846040614642565b6126a790610260614661565b6126b2906020614661565b906126be856001614661565b6126c9906040614642565b6126d590610260614661565b926126e2939291906147ae565b6126eb916147de565b608085856126fa866040614642565b61270690610260614661565b90612712876040614642565b61271e90610260614661565b612729906020614661565b92612736939291906147ae565b61273f916147de565b901b1790505b9392505050565b60008160000361275e57506000919050565b8160010361278d57507fad3228b676f7d3cd4284a5443f17f1962b36e491b30a40b2405849e597ba5fb5919050565b816002036127bc57507fb4c11951957c6f8f642c4af61cd6b24640fec6dc7fc607ee8206a99e92410d30919050565b816003036127eb57507f21ddb9a356815c3fac1026b6dec5df3124afbadb485c9ba5a3e3398a04b7ba85919050565b8160040361281a57507fe58769b32a1beaf1ea27375a44095a0d1fb664ce2dd358e7fcbfb78c26a19344919050565b8160050361284957507f0eb01ebfc9ed27500cd4dfc979272d1f0913cc9f66540d7e8005811109e1cf2d919050565b8160060361287857507f887c22bd8750d34016ac3c66b5ff102dacdd73f6b014e710b51e8022af9a1968919050565b816007036128a757507fffd70157e48063fc33c97a050f7f640233bf646cc98d9524c6b92bcf3ab56f83919050565b816008036128d657507f9867cc5f7f196b93bae1e27e6320742445d290f2263827498b54fec539f756af919050565b8160090361290557507fcefad4e508c098b9a7e1d8feb19955fb02ba9675585078710969d3440f5054e0919050565b6040517f90fa88a700000000000000000000000000000000000000000000000000000000815260040160405180910390fd5b60008363ffffffff168263ffffffff16111561297f576040517f6f4617f300000000000000000000000000000000000000000000000000000000815260040160405180910390fd5b818463ffffffff16866040015163ffffffff168161299f5761299f61438e565b0686604001510301856040019063ffffffff16908163ffffffff16815250508363ffffffff168263ffffffff1610156129e157506020840182905260006129f7565b6000602086015284516129f49084613253565b90505b949350505050565b8151612a0d9084908361331d565b506020810151602183015560400151602290910180547fffffffffffffffffffffffffffffffffffffffffffffffffffffffff000000001663ffffffff909216919091179055565b60008082600001516020015167ffffffffffffffff811115612a7957612a79613d9f565b604051908082528060200260200182016040528015612aa2578160200160208202803683370190505b50905060005b835160200151811015612af3578351518160208110612ac957612ac9614613565b6020020151828281518110612ae057612ae0614613565b6020908102919091010152600101612aa8565b50602080840151604051612b09928491016148e7565b60405160208183030381529060405280519060200120915050919050565b60007fffffffff0000000000000000000000000000000000000000000000000000000082167f7965db0b000000000000000000000000000000000000000000000000000000001480610bbf57507f01ffc9a7000000000000000000000000000000000000000000000000000000007fffffffff00000000000000000000000000000000000000000000000000000000831614610bbf565b610fe3813361336f565b600082815260656020908152604080832073ffffffffffffffffffffffffffffffffffffffff8516845290915290205460ff16610e8957600082815260656020908152604080832073ffffffffffffffffffffffffffffffffffffffff85168452909152902080547fffffffffffffffffffffffffffffffffffffffffffffffffffffffffffffff00166001179055612c5e3390565b73ffffffffffffffffffffffffffffffffffffffff168173ffffffffffffffffffffffffffffffffffffffff16837f2f8788117e7eff1d82e926ec794901d17c78024a50270940304540a733656f0d60405160405180910390a45050565b600082815260656020908152604080832073ffffffffffffffffffffffffffffffffffffffff8516845290915290205460ff1615610e8957600082815260656020908152604080832073ffffffffffffffffffffffffffffffffffffffff8516808552925280832080547fffffffffffffffffffffffffffffffffffffffffffffffffffffffffffffff0016905551339285917ff6391f5c32d9c69d2a47ea670b442974b53935d1edc7fd64eb21e047a839171b9190a45050565b7ff66846415d2bf9eabda9e84793ff9c0ea96d87f50fc41e66aa16469c6a442f05610e8981612bbe565b7f4910fdfa16fed3260ed0e7147f7cc6da11a60208b5b9406d12a635614ffd91435460ff1615612dd457610e2283613429565b8273ffffffffffffffffffffffffffffffffffffffff166352d1902d6040518163ffffffff1660e01b8152600401602060405180830381865afa925050508015612e59575060408051601f3d9081017fffffffffffffffffffffffffffffffffffffffffffffffffffffffffffffffe0168201909252612e569181019061490e565b60015b612e8f576040517f08c379a0000000000000000000000000000000000000000000000000000000008152600401610e7690614989565b7f360894a13ba1a3210667c828492db98dca3e2076cc3735a920a3ca505d382bbc8114612ee8576040517f08c379a0000000000000000000000000000000000000000000000000000000008152600401610e76906149f3565b50610e228383836134dd565b600080612f0360026080614a03565b63ffffffff1667ffffffffffffffff811115612f2157612f21613d9f565b604051908082528060200260200182016040528015612f4a578160200160208202803683370190505b50905060005b612f5c60026080614a03565b63ffffffff16811015612fd757612fb284600183901b60808110612f8257612f82614613565b602002015185600184811b1760808110612f9e57612f9e614613565b602002015160009182526020526040902090565b828281518110612fc457612fc4614613565b6020908102919091010152600101612f50565b506000612fe660046080614a03565b63ffffffff1690505b801561307f5760005b818110156130765761305183600183901b8151811061301957613019614613565b602002602001015184600184901b6001178151811061303a5761303a614613565b602002602001015160009182526020526040902090565b83828151811061306357613063614613565b6020908102919091010152600101612ff8565b5060011c612fef565b8160008151811061309257613092614613565b602002602001015192505050919050565b61012554604051600091829173ffffffffffffffffffffffffffffffffffffffff9091169061260e9086908690614898565b6130dd613ae1565b60208083015490820181905260005b818110156131285783816020811061310657613106614613565b01548351826020811061311b5761311b614613565b60200201526001016130ec565b5050919050565b600054610100900460ff166124a0576040517f08c379a0000000000000000000000000000000000000000000000000000000008152600401610e7690614a7b565b600054610100900460ff166131b1576040517f08c379a0000000000000000000000000000000000000000000000000000000008152600401610e7690614a7b565b609780547fffffffffffffffffffffffffffffffffffffffffffffffffffffffffffffff00169055565b60208301516000901561321a576040517f27e3c14100000000000000000000000000000000000000000000000000000000815260040160405180910390fd5b8282516132279190614a8b565b84604001818151613238919061436e565b63ffffffff90811690915285516129f7925090849061350216565b6020820151600090829082905b808210801561328857508551600090836020811061328057613280614613565b602002015114155b156132e65785516132b99083602081106132a4576132a4614613565b60200201518460009182526020526040902090565b865190935082602081106132cf576132cf614613565b602002016000801916815250816001019150613260565b8551839083602081106132fb576132fb614613565b6020020152808210613311576001820160208701525b50600101949350505050565b6020808301519084015560005b81811015613369578251816020811061334557613345614613565b602002015184600001826020811061335f5761335f614613565b015560010161332a565b50505050565b600082815260656020908152604080832073ffffffffffffffffffffffffffffffffffffffff8516845290915290205460ff16610e89576133af816136fa565b6133ba836020613719565b6040516020016133cb929190614af4565b604080517fffffffffffffffffffffffffffffffffffffffffffffffffffffffffffffffe0818403018152908290527f08c379a0000000000000000000000000000000000000000000000000000000008252610e7691600401614ba8565b73ffffffffffffffffffffffffffffffffffffffff81163b613477576040517f08c379a0000000000000000000000000000000000000000000000000000000008152600401610e7690614c13565b7f360894a13ba1a3210667c828492db98dca3e2076cc3735a920a3ca505d382bbc80547fffffffffffffffffffffffff00000000000000000000000000000000000000001673ffffffffffffffffffffffffffffffffffffffff92909216919091179055565b6134e68361392c565b6000825111806134f35750805b15610e22576133698383613979565b80516000908180808080805b86156136d8578951600090866020811061352a5761352a614613565b60200201511461353b57600161353e565b60005b60ff1695505050848401600181901c907ffffffffffffffffffffffffffffffffffffffffffffffffffffffffffffffffe1660005b8181101561365e57866001036135eb57806000036135aa578a51866020811061359e5761359e614613565b602002015194506135ca565b8960018203815181106135bf576135bf614613565b602002602001015194505b8981815181106135dc576135dc614613565b60200260200101519350613627565b8981815181106135fd576135fd614613565b6020026020010151945089816001018151811061361c5761361c614613565b602002602001015193505b60008581526020859052604090208a600183901c8151811061364b5761364b614613565b6020908102919091010152600201613573565b508587600116146136a65788600188038151811061367e5761367e614613565b60200260200101518a60000151866020811061369c5761369c614613565b60200201526136ca565b856001036136ca57895160009086602081106136c4576136c4614613565b60200201525b81965084600101945061350e565b89602001518511156136ec5760208a018590525b509298975050505050505050565b6060610bbf73ffffffffffffffffffffffffffffffffffffffff831660145b60606000613728836002614642565b613733906002614661565b67ffffffffffffffff81111561374b5761374b613d9f565b6040519080825280601f01601f191660200182016040528015613775576020820181803683370190505b5090507f3000000000000000000000000000000000000000000000000000000000000000816000815181106137ac576137ac614613565b60200101907effffffffffffffffffffffffffffffffffffffffffffffffffffffffffffff1916908160001a9053507f78000000000000000000000000000000000000000000000000000000000000008160018151811061380f5761380f614613565b60200101907effffffffffffffffffffffffffffffffffffffffffffffffffffffffffffff1916908160001a905350600061384b846002614642565b613856906001614661565b90505b60018111156138f3577f303132333435363738396162636465660000000000000000000000000000000085600f166010811061389757613897614613565b1a60f81b8282815181106138ad576138ad614613565b60200101907effffffffffffffffffffffffffffffffffffffffffffffffffffffffffffff1916908160001a90535060049490941c936138ec81614c23565b9050613859565b508315612745576040517f08c379a0000000000000000000000000000000000000000000000000000000008152600401610e7690614c58565b61393581613429565b60405173ffffffffffffffffffffffffffffffffffffffff8216907fbc7cd75a20ee27fd9adebab32041f755214dbc6bffa90cc0225b39da2e5c2d3b90600090a250565b606073ffffffffffffffffffffffffffffffffffffffff83163b6139c9576040517f08c379a0000000000000000000000000000000000000000000000000000000008152600401610e7690614cec565b6000808473ffffffffffffffffffffffffffffffffffffffff16846040516139f19190614cfc565b600060405180830381855af49150503d8060008114613a2c576040519150601f19603f3d011682016040523d82523d6000602084013e613a31565b606091505b5091509150613a598282604051806060016040528060278152602001614d0960279139613a62565b95945050505050565b60608315613a71575081612745565b6127458383815115613a865781518083602001fd5b806040517f08c379a0000000000000000000000000000000000000000000000000000000008152600401610e769190614ba8565b6040518060600160405280613acd613ae1565b815260006020820181905260409091015290565b6040518060400160405280613af4613b01565b8152602001600081525090565b6040518061040001604052806020906020820280368337509192915050565b60008083601f840112613b3557613b35600080fd5b50813567ffffffffffffffff811115613b5057613b50600080fd5b602083019150836001820283011115613b6b57613b6b600080fd5b9250929050565b60008060208385031215613b8857613b88600080fd5b823567ffffffffffffffff811115613ba257613ba2600080fd5b613bae85828601613b20565b92509250509250929050565b7fffffffff0000000000000000000000000000000000000000000000000000000081165b8114610fe357600080fd5b8035610bbf81613bba565b600060208284031215613c0957613c09600080fd5b60006129f78484613be9565b8015155b82525050565b60208101610bbf8284613c15565b80613bde565b8035610bbf81613c2d565b63ffffffff8116613bde565b8035610bbf81613c3e565b60008060008060608587031215613c6e57613c6e600080fd5b6000613c7a8787613c33565b9450506020613c8b87828801613c4a565b935050604085013567ffffffffffffffff811115613cab57613cab600080fd5b613cb787828801613b20565b95989497509550505050565b600073ffffffffffffffffffffffffffffffffffffffff8216610bbf565b613c1981613cc3565b60208101610bbf8284613ce1565b600060208284031215613d0d57613d0d600080fd5b60006129f78484613c33565b80613c19565b60208101610bbf8284613d19565b613bde81613cc3565b8035610bbf81613d2d565b60008060408385031215613d5757613d57600080fd5b6000613d638585613c33565b9250506020613d7485828601613d36565b9150509250929050565b600060208284031215613d9357613d93600080fd5b60006129f78484613d36565b7f4e487b7100000000000000000000000000000000000000000000000000000000600052604160045260246000fd5b7fffffffffffffffffffffffffffffffffffffffffffffffffffffffffffffffe0601f830116810181811067ffffffffffffffff82111715613e1257613e12613d9f565b6040525050565b6000613e2460405190565b9050613e308282613dce565b919050565b600067ffffffffffffffff821115613e4f57613e4f613d9f565b7fffffffffffffffffffffffffffffffffffffffffffffffffffffffffffffffe0601f83011660200192915050565b82818337506000910152565b6000613e9d613e9884613e35565b613e19565b905082815260208101848484011115613eb857613eb8600080fd5b613ec3848285613e7e565b509392505050565b600082601f830112613edf57613edf600080fd5b81356129f7848260208601613e8a565b60008060408385031215613f0557613f05600080fd5b6000613f118585613d36565b925050602083013567ffffffffffffffff811115613f3157613f31600080fd5b613d7485828601613ecb565b6000613f498383613d19565b505060200190565b6020818060005b83811015613f7d578151613f6c8782613f3d565b965060208301925050600101613f58565b505050505050565b8051610420830190613f978482613f51565b506020820151613369610400850182613d19565b63ffffffff8116613c19565b8051610460830190613fc98482613f85565b506020820151613fdd610420850182613d19565b506040820151613369610440850182613fab565b6104608101610bbf8284613fb7565b60208101610bbf8284613fab565b60006020828403121561402357614023600080fd5b60006129f78484613c4a565b806110008101831015610bbf57610bbf600080fd5b8061aea08101831015610bbf57610bbf600080fd5b60008060008060008061bf00878903121561407657614076600080fd5b60006140828989613c33565b965050602061409389828a01613c4a565b95505060406140a489828a0161402f565b9450506110406140b689828a01614044565b93505061bee087013567ffffffffffffffff8111156140d7576140d7600080fd5b6140e389828a01613b20565b92509250509295509295509295565b6104208101610bbf8284613f85565b61046081016141108286613f85565b61411e610420830185613d19565b6129f7610440830184613fab565b6000806040838503121561414257614142600080fd5b600061414e8585613c4a565b9250506020613d7485828601613c33565b60008060008060008060c0878903121561417b5761417b600080fd5b60006141878989613d36565b965050602061419889828a01613d36565b95505060406141a989828a01613d36565b94505060606141ba89828a01613d36565b93505060806141cb89828a01613d36565b92505060a06141dc89828a01613d36565b9150509295509295509295565b600060a082840312156141fe576141fe600080fd5b50919050565b60006020828403121561421957614219600080fd5b813567ffffffffffffffff81111561423357614233600080fd5b6129f7848285016141e9565b60008083601f84011261425457614254600080fd5b50813567ffffffffffffffff81111561426f5761426f600080fd5b602083019150836020820283011115613b6b57613b6b600080fd5b600080600080600080608087890312156142a6576142a6600080fd5b60006142b28989613c4a565b965050602087013567ffffffffffffffff8111156142d2576142d2600080fd5b6142de89828a0161423f565b9550955050604087013567ffffffffffffffff81111561430057614300600080fd5b61430c89828a0161423f565b935093505060606141dc89828a01613c4a565b7f4e487b7100000000000000000000000000000000000000000000000000000000600052601160045260246000fd5b63ffffffff918216919081169082820390811115610bbf57610bbf61431f565b63ffffffff918216919081169082820190811115610bbf57610bbf61431f565b7f4e487b7100000000000000000000000000000000000000000000000000000000600052601260045260246000fd5b63ffffffff91821691166000826143d6576143d661438e565b500690565b81810381811115610bbf57610bbf61431f565b6000610bbf8260e01b90565b613c1963ffffffff82166143ee565b60006144158286613d19565b6020820191506144258285613d19565b60208201915061443582846143fa565b506004019392505050565b6060810161444e8286613d19565b61445b6020830185613d19565b6129f76040830184613fab565b602f81526000602082017f416363657373436f6e74726f6c3a2063616e206f6e6c792072656e6f756e636581527f20726f6c657320666f722073656c660000000000000000000000000000000000602082015291505b5060400190565b60208082528101610bbf81614468565b602c81526000602082017f46756e6374696f6e206d7573742062652063616c6c6564207468726f7567682081527f64656c656761746563616c6c0000000000000000000000000000000000000000602082015291506144be565b60208082528101610bbf816144d5565b602c81526000602082017f46756e6374696f6e206d7573742062652063616c6c6564207468726f7567682081527f6163746976652070726f78790000000000000000000000000000000000000000602082015291506144be565b60208082528101610bbf8161453f565b603881526000602082017f555550535570677261646561626c653a206d757374206e6f742062652063616c81527f6c6564207468726f7567682064656c656761746563616c6c0000000000000000602082015291506144be565b60208082528101610bbf816145a9565b7f4e487b7100000000000000000000000000000000000000000000000000000000600052603260045260246000fd5b81810280821583820485141761465a5761465a61431f565b5092915050565b80820180821115610bbf57610bbf61431f565b602e81526000602082017f496e697469616c697a61626c653a20636f6e747261637420697320616c72656181527f647920696e697469616c697a6564000000000000000000000000000000000000602082015291506144be565b60208082528101610bbf81614674565b600060ff8216610bbf565b613c19816146de565b60208101610bbf82846146e9565b60008083357fffffffffffffffffffffffffffffffffffffffffffffffffffffffffffffffe13685900301811261473957614739600080fd5b80840192508235915067ffffffffffffffff82111561475a5761475a600080fd5b6020928301928202360383131561477357614773600080fd5b509250929050565b6000808585111561478e5761478e600080fd5b8386111561479e5761479e600080fd5b5050602083020193919092039150565b600080858511156147c1576147c1600080fd5b838611156147d1576147d1600080fd5b5050820193919092039150565b80358282602082101561481f5761481a7fffffffffffffffffffffffffffffffffffffffffffffffffffffffffffffffff836020036008021b90565b831692505b505092915050565b80357fffffffff00000000000000000000000000000000000000000000000000000000168282600482101561481f5761481a7fffffffff00000000000000000000000000000000000000000000000000000000836004036008021b90565b6000614892838584613e7e565b50500190565b60006129f7828486614885565b60006148af825190565b602083018060005b838110156148dc5781516148cb8882613f3d565b9750602083019250506001016148b7565b509495945050505050565b60006148f38285613d19565b6020820191506129f782846148a5565b8051610bbf81613c2d565b60006020828403121561492357614923600080fd5b60006129f78484614903565b602e81526000602082017f45524331393637557067726164653a206e657720696d706c656d656e7461746981527f6f6e206973206e6f742055555053000000000000000000000000000000000000602082015291506144be565b60208082528101610bbf8161492f565b602981526000602082017f45524331393637557067726164653a20756e737570706f727465642070726f7881527f6961626c65555549440000000000000000000000000000000000000000000000602082015291506144be565b60208082528101610bbf81614999565b63ffffffff9182169116600082614a1c57614a1c61438e565b500490565b602b81526000602082017f496e697469616c697a61626c653a20636f6e7472616374206973206e6f74206981527f6e697469616c697a696e67000000000000000000000000000000000000000000602082015291506144be565b60208082528101610bbf81614a21565b63ffffffff91821691908116908282029081169081811461465a5761465a61431f565b60005b83811015614ac9578181015183820152602001614ab1565b50506000910152565b6000614adc825190565b614aea818560208601614aae565b9290920192915050565b7f416363657373436f6e74726f6c3a206163636f756e742000000000000000000081526017016000614b268285614ad2565b7f206973206d697373696e6720726f6c6520000000000000000000000000000000815260110191506129f78284614ad2565b6000614b62825190565b808452602084019350614b79818560208601614aae565b601f017fffffffffffffffffffffffffffffffffffffffffffffffffffffffffffffffe0169290920192915050565b602080825281016127458184614b58565b602d81526000602082017f455243313936373a206e657720696d706c656d656e746174696f6e206973206e81527f6f74206120636f6e747261637400000000000000000000000000000000000000602082015291506144be565b60208082528101610bbf81614bb9565b600081614c3257614c3261431f565b507fffffffffffffffffffffffffffffffffffffffffffffffffffffffffffffffff0190565b60208082528181019081527f537472696e67733a20686578206c656e67746820696e73756666696369656e74604083015260608201610bbf565b602681526000602082017f416464726573733a2064656c65676174652063616c6c20746f206e6f6e2d636f81527f6e74726163740000000000000000000000000000000000000000000000000000602082015291506144be565b60208082528101610bbf81614c92565b60006127458284614ad256fe416464726573733a206c6f772d6c6576656c2064656c65676174652063616c6c206661696c6564a264697066735822122073750a3a4c0edc5b6f1f24e828ac97b3b48434ebc09ad5ecb8097b61c769d59e64736f6c63430008130033","linkReferences":{}},"methodIdentifiers":{"AXIOM_ROLE()":"2b7d2bad","DEFAULT_ADMIN_ROLE()":"a217fddf","GUARDIAN_ROLE()":"24ea54f4","PROVER_ROLE()":"dc9a4ef6","TIMELOCK_ROLE()":"f288a2e2","UNFREEZE_ROLE()":"c608b5e8","appendHistoricalPMMR(uint32,bytes32[],bytes32[],uint32)":"ee5ead60","blockhashPmmr()":"b16fc75d","blockhashPmmrLeaf()":"57b835f2","blockhashPmmrPeaks()":"adfc424c","blockhashPmmrSize()":"596ef8a7","freezeAll()":"99464c89","frozen()":"054f7d9c","fullBlockhashPmmr()":"5144eeec","getRoleAdmin(bytes32)":"248a9ca3","grantRole(bytes32,address)":"2f2ff15d","hasRole(bytes32,address)":"91d14854","historicalRoots(uint32)":"c6ca4753","historicalVerifierAddress()":"fe9ccb60","initialize(address,address,address,address,address,address)":"cc2a9a5b","isBlockHashValid((uint32,bytes32,bytes32,uint32,bytes32[]))":"dd3c9178","isRecentBlockHashValid(uint32,bytes32)":"c1f7cae2","pmmrSnapshots(uint32)":"5ed36613","proxiableUUID()":"52d1902d","renounceRole(bytes32,address)":"36568abe","revokeRole(bytes32,address)":"d547741f","supportsInterface(bytes4)":"01ffc9a7","unfreezeAll()":"66c5c4a0","updateHistorical(bytes32,uint32,bytes32[128],bytes32[11][127],bytes)":"7225fb21","updateOld(bytes32,uint32,bytes)":"11b63d01","updateRecent(bytes)":"01ef3afa","upgradeHistoricalSnarkVerifier(address)":"ac59e61c","upgradeSnarkVerifier(address)":"853ead4a","upgradeTo(address)":"3659cfe6","upgradeToAndCall(address,bytes)":"4f1ef286","verifierAddress()":"18bdffbb"},"id":11}